:020000040800F2
:1000000000A000203D460008454400084744000881
:10001000494400084B4400084D440008000000001B
:100020000000000000000000000000004F44000835
:1000300051440008000000005344000855440008E3
:100040008D4600088D4600088D4600088D46000844
:100050008D4600085D4400085F4400088D46000896
:100060008D4600088D4600088D4600088D46000824
:100070008D4600088D4600088D4600088D46000814
:100080008D4600088D4600088D460008694400082A
:100090007944000889440008994400088D46000806
:1000A0008D4600088D4600088D4600088D460008E4
:1000B0008D4600088D4600088D4600088D460008D4
:1000C0008D460008A9440008B94400088D46000880
:1000D000C94400088D460008D94400088D46000830
:1000E0008D4600088D4600088D4600088D460008A4
:1000F0008D4600088D4600088D4600088D46000894
:100100000000000000000000000000008D46000814
:100110008D4600088D4600088D4600088D46000873
:100120008D4600088D4600088D4600088D46000863
:100130008D4600088D460008000000000000000009
:100140008D4600088D4600088D460008000000001E
:10015000000000000000000000000000000000009F
:1001600000000000000000008D4600088D460008D9
:100170008D460008000000000000000000000000A4
:08018000000000008D4600089C
:1001880010B5054C237833B9044B13B10448AFF3C9
:1001980000800123237010BD9C0000200000000097
:1001A800F448000808B5034B1BB103490348AFF3F3
:1001B800008008BD00000000A0000020F4480008EE
:1001C80010B504460E4B18784FF47A73B3FBF0F36E
:1001D8000C4A1068B0FBF3F000F04AFC68B90F2C29
:1001E80001D901200AE0002221464FF0FF3000F03B
:1001F800FFFB034B5C60002000E0012010BD00BF46
:10020800000000203400002008B5074A136843F0B6
:1002180010031360032000F0D9FB0020FFF7D0FF84
:1002280004F0EAF8002008BD00200240034A1168E3
:10023800034B1B780B441360704700BFE00100209C
:1002480000000020014B1868704700BFE001002043
:1002580038B50446FFF7F6FF0546B4F1FF3F02D074
:10026800044B1B781C44FFF7EDFF401BA042FAD358
:1002780038BD00BF00000020002800F0A18038B57C
:10028800044690F82030D3B12268136823F00203A3
:100298001360FFF7D7FF054623685A6812F0020F6C
:1002A80010D0FFF7CFFF401B0A28F5D9636A43F443
:1002B80000336362052384F82030012038BD03F041
:1002C8003BFBE1E71A6842F001021A60FFF7BAFF48
:1002D800054623685A6812F0010F0DD1FFF7B2FFE7
:1002E800401B0A28F5D9636A43F400336362052387
:1002F80084F820300120E1E7227E012A3DD01A68E7
:1003080022F080021A60637E012B3BD022681368BA
:1003180023F040031360A37E012B39D022681368B1
:1003280023F020031360E37E012B37D02268136883
:1003380043F010031360237F012B35D02268136824
:1003480023F008031360637F012B33D022681368FE
:1003580023F004031360A368E2681343226913437C
:10036800626913436268013A21681343CB61002034
:100378006062012384F82030A0E71A6842F0800206
:100388001A60C0E72268136843F040031360C2E7AD
:100398002268136843F020031360C4E722681368D7
:1003A80023F010031360C6E72268136843F00803BC
:1003B8001360C8E72268136843F004031360CAE7B0
:1003C80001207047036890F82020013AD2B2012A30
:1003D80005D9436A43F4802343620120704770B40F
:1003E800D3F8002242F00102C3F800224A6902F061
:1003F8001F02012000FA02F2D3F81C42D043044045
:10040800C3F81C42CC69ACB9D3F80C420440C3F819
:100418000C42CE688D884C6945EA0645483443F855
:1004280034508E680D884C6945EA0645483403EB1C
:10043800C4046560CC69012C19D08C6974BBD3F8ED
:1004480004420440C3F804420C696CBBD3F814425C
:100458002040C3F81402096A01292BD0D3F80022DE
:1004680022F00102C3F80022002070BC7047D3F8C4
:100478000C421443C3F80C420E688D884C6945EA57
:100488000645483443F834508E688D894C6945EAEE
:100498000645483403EBC4046560CEE7D3F804424C
:1004A8001443C3F80442CFE7D3F814021043C3F847
:1004B8001402D0E7D3F81C120A43C3F81C22CDE774
:1004C80038B590F82030DBB2012B05D0436A43F4ED
:1004D80000234362012038BD0446022380F82030FF
:1004E8000268136823F001031360FFF7ABFE0546AB
:1004F80023685B6813F0010F0DD0FFF7A3FE401BC4
:100508000A28F5D9636A43F400336362052384F843
:1005180020300120DFE700206062DCE770B490F84B
:1005280020400568AD68013CE4B2012C06D9436A55
:1005380043F480234362012070BC704715F0E05FEC
:100548005BD0C5F30165022D3ED80124AC401C6088
:100558008B68002B3ED10E68CB68046843EA465688
:1005680005F118031B01E65003680C6905F118062C
:1005780003EB06135C600B7D012B36D0D1799379A0
:100588001B0443EA0163517943EA012314790168A2
:1005980023432C012144C1F88C31D17893781B0472
:1005A80043EA0163517843EA0123117802680B4357
:1005B8002244C2F88831026818352D01535943F096
:1005C800010353510020B7E7436A43F40003436231
:1005D8000120B1E74C6843EAC403CC6806682343AA
:1005E80005F1180424013351BEE7036803EB061331
:1005F800596841F480715960C0E7436A43F40013B5
:100608004362012098E730B490F82040013CE4B2FE
:10061800012C06D9436A43F480234362012030BC8D
:10062800704700296FD10468E46814F0030F64D0A0
:10063800056801F11B0424012C5904F0040494609A
:10064800002C6BD1056801F11B0424012C59640DA1
:100658001460056801F11B0424012D59C5F34005F8
:10066800D560056825446D6805F00F0515610568B6
:1006780025446D68C5F30725956105682C446468B1
:10068800240C546104680A011444D4F8B8411C705D
:1006980004681444D4F8B841C4F307245C700468AF
:1006A8001444D4F8B841C4F307449C700468144453
:1006B800D4F8B841240EDC7004681444D4F8BC4162
:1006C8001C7104681444D4F8BC41C4F307245C7159
:1006D80004681444D4F8BC41C4F307449C7104680A
:1006E8002244D2F8BC21120EDA71F9B90268D36833
:1006F80043F02003D360002091E7436A43F40013DA
:10070800436201208BE70468246914F0030F8FD13A
:10071800436A43F400134362012080E7056801F14E
:100728001B0424012C59E408546092E702681369F9
:1007380043F020031361002071E790F82030013B5B
:10074800DBB2012B05D9436A43F4802343620120BD
:100758007047026853691943516100207047704718
:1007680070477047704770477047704770477047C9
:10077800704770472DE9F84F054603685C695F6864
:100788009E68D3F80C90D3F81080D3F818A014F012
:10079800010F5AD016F0010F17D001229A6016F0F7
:1007A800020F08D116F0040F30D116F0080F07D049
:1007B8004FF4805B0BE003F05FFB4FF0000B06E0AB
:1007C800FFF7CFFF4FF0000B01E04FF0000B16F4DE
:1007D800807F0BD02B684FF480729A6016F4007FEC
:1007E80017D116F4806F18D04BF4005B16F4803FD5
:1007F8002DD02B684FF480329A6016F4003F16D142
:1008080016F4802F17D04BF4004B20E04FF4006B08
:10081800DDE72846FFF7A3FFE8E716F4006F02D0EC
:100828004BF4804BE2E72846FFF79CFFDEE72846BB
:10083800FFF796FF0BE016F4002F02D04BF4803B35
:1008480005E02846FFF78FFF01E04FF0000B14F09A
:10085800080F07D019F0100F04D04BF4007B2B6859
:100868001022DA6014F0040F02D019F0080F60D1DA
:1008780014F0020F04D02B68DB6813F0030F5FD16C
:1008880014F0400F07D018F0100F04D04BF4806B11
:100898002B6810221A6114F0200F02D018F0080FEC
:1008A80052D114F0100F04D02B681B6913F0030FFA
:1008B80051D114F4003F02D017F0100F4FD114F4A7
:1008C800803F02D017F0080F50D114F4004F67D0C2
:1008D80017F0040F61D014F4807F04D01AF0010FD0
:1008E80001D04BF0010B14F4007F04D01AF0020F72
:1008F80001D04BF0020B14F4806F04D01AF0040FEF
:1009080001D04BF0040B14F4006F46D01AF0700AB3
:1009180043D0BAF1300F48D02FD9BAF1500F47D091
:10092800BAF1600F47D0BAF1400F31D14BF0400B0C
:100938002EE02B680822DA602846FFF715FF97E7B4
:10094800284603F0F3FA9BE72B6808221A61284629
:10095800FFF70CFFA5E72846FFF707FFA9E72B6875
:1009680010225A602846FFF702FFA8E72B680822E2
:100978005A602846FFF7FCFEA7E7BAF1100F05D02A
:10098800BAF1200F04D14BF0100B01E04BF0080B2B
:100998002A68936923F0700393612B6804225A60D4
:1009A800BBF1000F0AD1BDE8F88F4BF0200BEFE741
:1009B8004BF0800BECE74BF4807BE9E76B6A43EA8A
:1009C8000B036B622846FFF7D4FEECE7074AD368AF
:1009D80023F4E0631B041B0C000200F4E0601843DE
:1009E80040F0BF6040F40030D060704700ED00E098
:1009F80030B4174BDB68C3F30223C3F10704042C9C
:100A080028BF04241D1D062D18D9033B4FF0FF35C0
:100A180005FA04F421EA0401994005FA03F322EAED
:100A28000303194300280BDB0901C9B200F1604038
:100A380000F5614080F8001330BC70470023E5E7FB
:100A480000F00F000901C9B2024B1954F4E700BFC6
:100A580000ED00E014ED00E000F01F024009012362
:100A68009340024A42F82030704700BF00E100E09E
:100A78000138B0F1807F0AD2064B5860064AF0214F
:100A880082F823100020986007221A60704701201E
:100A9800704700BF10E000E000ED00E070B40024F3
:100AA8000FE011F8246001EB84056B781B0443EA1E
:100AB8000663AE7843EA0623EE78056833432B6075
:100AC8000134B4EB920FECD312F0030205D0012AE3
:100AD80007D0022A0AD0032A12D00368186870BC0B
:100AE8007047036811F824501D70F2E711F824606C
:100AF80001EB84035B78056843EA06232B80EAE769
:100B080011F8245001EB84014B78026843EA05236D
:100B1800138003688A781A70DFE70023B3EB520F5B
:100B280018D270B431F8236001EB83046488056837
:100B380044EA06442C600133B3EB520FF2D312F0AF
:100B4800010F03D0026831F8233013800368186856
:100B580070BC704712F0010F03D0026831F82330DF
:100B68001380036818687047002838D010B5044609
:100B7800437F1BB30223637723791BBB2368194A7E
:100B88005A612268936823F018039360637913BB52
:100B980023684FF0FF321A612268936823F06003DC
:100BA80061690B4393602268936823F08003A1690D
:100BB8000B43936001236377002010BD037702F095
:100BC8001BFFD7E7E268A168204600F03EF800283E
:100BD800DCD00120F1E7236822691A61DCE70120F3
:100BE800704700BFB71DC10438B5037F012B2AD059
:100BF800044601230377022343770068836843F0A0
:100C080001038360236A022B19D0032B11D0012B17
:100C180011D0002008E0206851F823500560013306
:100C28009342F8D323681868012363770023237756
:100C380038BD0023F4E72046FFF730FFF4E72046ED
:100C4800FFF76BFFF0E70220F2E710B41F2400E083
:100C58001C460123A3400B4203D1631E002CF7D18D
:100C68001C46102A13D0182A0DD0082A13D003685E
:100C7800596101688B6823F018031A438A600020C1
:100C88005DF8044B7047062CF1D90120F8E7072CD2
:100C9800EDD90120F4E70F2CE9D90120F0E708B5D8
:100CA80090F82130022B03D004238363012008BD70
:100CB8000268136823F00E0313600268136823F0B8
:100CC80001031360036CC16B012202FA03F34B604A
:100CD80080F82120002380F82030436B13B1984717
:100CE8000020E4E70020E2E7F0B482B0002336E019
:100CF800042400E00024B4403C4302355B4E46F82F
:100D080025405B4C2568D44304EA05064F6817F470
:100D1800803F01D042EA0506554D2E606D6804EA11
:100D280005064F6817F4003F01D042EA0506504D0A
:100D38006E60AD6804EA05064F6817F4801F01D09D
:100D480042EA05064A4DAE60ED682C404E6816F43E
:100D5800001F01D042EA0504454AD46001330A68FD
:100D680032FA03F47ED001249C402240F6D04D682C
:100D7800022D01D0122D10D1DE08083650F826C0F9
:100D880003F00705AF000F25BD402CEA050C0D69DF
:100D9800BD4045EA0C0540F8265006685F0003256B
:100DA800BD40ED4305EA060C4E6806F00306BE405A
:100DB80046EA0C0606604E6806F1FF3CBCF1010FDE
:100DC80003D9112E01D0122E10D1866805EA060C1F
:100DD800CE68BE4046EA0C068660466826EA0404E9
:100DE8004E68C6F300169E4026434660C4682540F8
:100DF8008C68BC402C43C4604C6814F0805FADD054
:100E08001C4CA56945F00105A561A46904F001041D
:100E18000194019C9D08AE1C144C54F8267003F0F4
:100E28000304A6000F24B44027EA0407B0F1904F4A
:100E38003FF460AF104CA0420ED004F58064A0428D
:100E48000CD004F58064A0420AD004F58064A04266
:100E58003FF44EAF05244EE701244CE702244AE74D
:100E6800032448E702B0F0BC704700BF000001400F
:100E78000004014000100240000400480AB98162E1
:100E8800704781617047436959404161704700006C
:100E980008B5054B5B69034200D108BD024B586198
:100EA80002F0E0FFF9E700BF0004014003689A6917
:100EB80012F0020F01D000229A6203689A6912F0B8
:100EC800010F03D19A6942F001029A61704770B428
:100ED800039E05686868740D04F4806444F07F74A8
:100EE80044F4583444F47F7444F0030420EA0400C2
:100EF800C1F3090141EA02411943314301436960E1
:100F080070BC7047436B1E4A934217D01D4A9342E8
:100F180014D011F0040F30D1002311F0010F01D0CB
:100F280043F0F20311F0020F01D043F0F40301F093
:100F38001201122910D143F020030DE011F0040F23
:100F480010D1002301F01102112A0DD001F0120175
:100F580012290CD012290DD001680A6813430B60BE
:100F680000207047B823EDE743F09003EEE743F025
:100F78002003EFE743F04003EEE7B823CDE700BFD7
:100F8800E91900080317000810B411F0010F09D07F
:100F980090F8413003F02803282B01D0F22302E017
:100FA800422300E0002311F0020F09D043F044046B
:100FB80090F8412002F02802282A19D043F0F403BF
:100FC80011F0040F01D043F0B80301F01102112A07
:100FD80010D001F0120112290FD0122910D0016887
:100FE8000A6822EA03030B6000205DF8044B70478F
:100FF8002346E5E743F09003EBE743F02003ECE7F3
:1010080043F04003EBE7002859D010B5044690F8A8
:101018004130002B43D0242384F8413022681368E0
:1010280023F0010313606368226823F0706313617F
:101038002268936823F400439360E368012B33D05C
:10104800A368226843F404439360E368022B31D019
:101058002268536843F0007343F4004353602268E6
:10106800D36823F40043D360236962691343A169F9
:10107800226843EA0123D360E369216A22680B43AB
:1010880013602268136843F0010313600020606452
:10109800202384F84130206384F8420010BD80F892
:1010A800403002F091FDB6E7A368226843F400439C
:1010B8009360CAE723684FF400625A60C8E70120CA
:1010C8007047000030B583B090F84140E4B2202C5E
:1010D80037D10468A46914F4004F35D190F8404022
:1010E800012C33D0012480F84040212480F841406D
:1010F800102480F842400024446442624385144B23
:10110800C362144B4363438D9BB2FF2B14D9FF2357
:1011180003854FF08073044690F828200E4800900D
:101128002046FFF7D4FE002584F8405001212046D0
:10113800FFF7E8FE284605E0438D03854FF000736E
:10114800E9E7022003B030BD0220FBE70220F9E7FF
:101158000000FFFF751800080020008038B590F8DF
:101168004130DBB2202B22D190F84030012B20D027
:10117800012380F84030222380F84130202380F872
:1011880042300024446405686B6823F400436B60B4
:1011980041624285438D0385074BC362074B436316
:1011A80080F840400621FFF7ADFE204600E002200F
:1011B80038BD0220FCE700BF0000FFFFB91500089A
:1011C80008B5036899691A68436B03B1984708BD65
:1011D80038B50446002380F8423090F84130DBB23D
:1011E800212B0FD0202380F84130122303630025E0
:1011F80045630221FFF7C8FE84F84050204602F0FC
:10120800DFFD38BD202380F841301123036300251A
:1012180045630121FFF7B8FE84F84050204602F0EC
:10122800C5FDEEE710B50446002380F8423090F87B
:101238004130DBB2292B05D090F84130DBB22A2BA4
:101248000FD010BD282380F84130212303630121EA
:10125800FFF79AFE002384F84030204602F0BAFDDA
:10126800EFE7282380F84130222303630221FFF7A8
:101278008BFE002384F84030204602F0B5FDE0E7FD
:101288007047F8B590F8413003F02803282B06D0B2
:1012980003680822DA61002380F84030F8BD04466C
:1012A80003689E69C6F300469A69120C02F0FE05AF
:1012B8009A68C2F30902DF6807F0FE07C1680229CD
:1012C80021D185EAD21515F0060F10D1816C0131B4
:1012D8008164816C0229E1D1002181640820D861F0
:1012E80084F8401031462046FFF7CAFFD6E70421AC
:1012F800FFF74AFE002384F840303A46314620463C
:10130800FFF7BEFFCAE70421FFF73EFE002384F87B
:1013180040302A4631462046FFF7B2FFBEE7704705
:1013280010B50446164BC36200230363202280F8DD
:10133800412080F84230436311F0040F11D0036854
:101348005A6A436A591C41621A70038D4BB1013BBA
:101358000385438D013B9BB24385436C43F00403F3
:10136800436407212046FFF70FFE23681022DA6145
:10137800002384F840302046FFF7D1FF10BD00BF9E
:101388000000FFFF704770477047000010B5044623
:10139800002380F842303A4AC2624385436C1943BD
:1013A800416490F84130DBB2282B09D090F84130E5
:1013B800DBB2292B04D090F84130DBB22A2B1FD1A5
:1013C80003212046FFF7E0FD282384F8413000235D
:1013D80023632C4B636323681A6812F4804F1ED171
:1013E8001A6812F4004F2DD194F84130DBB2602B0B
:1013F8003BD0002384F84030204602F0FFFC10BDAB
:101408000721FFF7C1FD94F84130DBB2602B02D011
:10141800202384F84130002323636363DBE71A68E1
:1014280022F480421A60A36B174A5A63002384F897
:101438004030A06BFFF733FC0028E0D0A06B436B73
:101448009847DCE71A6822F400421A60E36B0E4AF8
:101458005A63002384F84030E06BFFF720FC002833
:10146800CDD0E06B436B9847C9E7202384F841301F
:10147800002384F840302046FFF786FFBFE700BF0F
:101488000000FFFFB9150008371B000838B50446EF
:101498000D4603682022DA6103680822DA61072111
:1014A800FFF772FD2268536843F4004353602268D3
:1014B800536823F0FF7323F48B3323F4FF7323F073
:1014C800010353602046FFF7F1FC2268136813F408
:1014D800804F03D1136813F4004F09D094F84130BA
:1014E800DBB2212B39D0E36B1B685B689BB2638549
:1014F800638D9BB21BB1636C43F00403636415F006
:10150800040F10D0526A636A591C61621A70238DE5
:101518004BB1013B2385638D013B9BB26385636CB3
:1015280043F0040363640023236384F84230636355
:10153800636CBBB9E36A13F5803F21D194F841305D
:10154800DBB2222B28D0202384F84130002384F8F2
:101558004030204602F03EFC1DE0A36B1B685B6830
:101568009BB2C4E7616C2046FFF710FF94F8413046
:10157800DBB2282B0FD129462046FFF7D1FE0AE01F
:101588000A4BE362202384F84130002384F840307A
:101598002046FFF7C4FE38BD202384F841300023DD
:1015A80084F84030204602F01FFCF4E70000FFFFFB
:1015B80090F84030012B00F09E8070B516460D461D
:1015C8000446012380F8403011F0100F3FD012F08C
:1015D800100F3CD0438D9BB243BBC36AB3F1007F6D
:1015E80003D0C36AB3F1007F04D194F84130DBB271
:1015F800282B0CD0E36A13F5803F04D094F84130CF
:10160800DBB2292B08D023681022DA6115E02946BD
:101618002046FFF785FE10E023681022DA61204695
:10162800FFF744FC2046FFF7FDFD06E003681022A3
:10163800DA61436C43F00403436415F0200F02D0D1
:1016480016F0200F52D1002084F8400070BD15F02C
:10165800040F1ED016F0040F1BD0638D9BB263B12C
:1016680023685A6A636A591C61621A70238D013BA8
:101678002385638D013B9BB26385638D9BB2002BF1
:10168800DBD1E36A13F5803FD7D02046FFF7CAFDC8
:10169800D3E715F0080F02D016F0080F16D115F091
:1016A800020FCAD016F0020FC7D0638D9BB293B158
:1016B800636A5A1C626222681B789362638D013BDD
:1016C8009BB26385238D013B2385B6E729462046D7
:1016D800FFF7D7FDB1E7E36AB3F1807F02D0E36A91
:1016E800002BAAD12046FFF79DFDA6E729462046F4
:1016F800FFF7CCFEA7E70220704790F84030012B97
:1017080041D010B50446012380F8403011F0100F85
:1017180021D012F0100F1ED090F84130DBB2212BEF
:101728000AD0C36B1B685B68B3FA83F35B0953B1D8
:1017380023681022DA611EE0836B1B685B68B3FACA
:1017480083F35B09F3E723681022DA61636C43F0E3
:10175800040363640FE011F0080F06D012F0080FBD
:1017680003D023680822DA6105E011F0200F02D0C7
:1017780012F0200F03D1002084F8400010BD20464D
:10178800FFF784FEF7E70220704710B504460368A8
:101798002022DA610268536823F0FF7323F48B3345
:1017A80023F4FF7323F001035360002303634363AF
:1017B800A3F58033C36211F0100F06D0036810221E
:1017C800DA61436C43F0040343642046FFF76EFB81
:1017D80003212046FFF7D8FB636CFBB994F841302E
:1017E800DBB2602B1AD094F84130DBB2212B1AD02F
:1017F80094F84130DBB2222B14D1202384F84130F5
:1018080094F84230DBB2402B27D0002384F84230D2
:1018180084F84030204602F0D3FA03E0616C204699
:10182800FFF7B4FD10BD202384F8413094F842300E
:10183800DBB2402B08D0002384F8423084F84030D3
:10184800204602F0B3FAEDE7002384F8423084F82A
:1018580040302046FFF796FDE4E7002384F8423045
:1018680084F840302046FFF78EFDDBE790F84030E3
:10187800012B00F0B38070B582B016460D460446C1
:10188800012380F8403011F0100F02D012F0100F31
:101898001ED115F0040F25D016F0040F22D02368AE
:1018A8005A6A636A591C61621A70238D013B238549
:1018B800638D013B9BB2638515F0200F03D016F0B2
:1018C800200F40F08680002084F8400002B070BDF0
:1018D80003681022DA61436C43F004034364FFF7A2
:1018E800E5FAE9E715F0020F10D016F0020F0DD057
:1018F800636A5A1C626222681B789362238D013BDB
:101908002385638D013B9BB26385D5E715F0800F76
:101918003FD016F0400F3CD0238D63BB638D9BB244
:101928004BB323685968C1F30901638D9BB2FF2B40
:101938000ED8628D92B22285E36A13F5803F11D0EA
:10194800E36A00200090D2B22046FFF7C0FAB3E75E
:10195800FF222285002300934FF080732046FFF773
:10196800B6FAA9E7002300934FF00073D2B22046DD
:10197800FFF7ADFAA0E723685B6813F0007F03D197
:101988002046FFF725FC97E740212046FFF7FEFC9D
:1019980092E715F0400F8FD016F0400F8CD0638D72
:1019A8009BB28BB923685A6812F0007F84D1E26A2F
:1019B80012F5803F04D15A6842F480425A607BE7AE
:1019C8002046FFF705FC77E740212046FFF7DEFCBD
:1019D80072E729462046FFF7D8FE74E702207047D1
:1019E80090F84030012B6AD010B582B0044601232C
:1019F80080F8403011F0100F02D012F0100F31D1E2
:101A080011F0800F4CD012F0400F49D022681368B3
:101A180023F040031360638D9BB2002B3BD02368F7
:101A28005968C1F30901638D9BB2FF2B28D9FF23A5
:101A380023854FF0807394F82820002000902046DA
:101A4800FFF745FA638D228D9B1A9BB2638594F844
:101A58004130DBB2222B18D02268136843F480434C
:101A6800136023E003681022DA61436C43F0040337
:101A780043641221FFF746FA2046FFF717FA15E0EC
:101A8800638D23854FF00073D5E72268136843F40C
:101A9800004313600AE040212046FFF777FC05E089
:101AA80011F0200F02D012F0200F04D1002084F88A
:101AB800400002B010BD2046FFF767FEF6E702209F
:101AC800704710B502689369116813F4807F09D0D4
:101AD80011F0800F06D0446C44F0010444644FF4C4
:101AE8008074D46113F4806F0AD011F0800F07D08E
:101AF800426C42F00802426402684FF48064D46188
:101B080013F4007F0AD011F0800F07D0436C43F024
:101B18000203436403684FF40072DA61436C13F004
:101B28000B0F00D110BD416CFFF730FCFAE708B588
:101B3800406A0268536843F400435360826B002391
:101B48005363C26B536390F84130DBB2602B02D011
:101B580002F054F908BD202380F84130FFF714FC47
:101B6800F8E790F841007047406C704790F84130B2
:101B7800DBB2202B24D190F84030012B22D0012356
:101B880080F84030242380F841300268136823F03D
:101B9800010313600268136823F48053136002681A
:101BA8001368194311600268136843F00103136056
:101BB800202380F84130002380F8403018467047D1
:101BC800022070470220704790F84130DBB2202B8A
:101BD80022D190F84030012B20D0012380F84030EA
:101BE800242380F841300268136823F0010313604E
:101BF8000268136823F4706343EA012111600268E4
:101C0800136843F001031360202380F84130002358
:101C180080F840301846704702207047022070470D
:101C2800002800F0F58270B582B00446036813F00E
:101C3800010F3BD0B54B5B6803F00C03042B1ED09F
:101C4800B24B5B6803F00C03082B13D06368B3F541
:101C5800803F68D0002B40F0928003F1804303F569
:101C680004331A6822F480321A601A6822F4802237
:101C78001A605DE0A54B5B6813F4803FE6D04FF433
:101C8800003393FAA3F3A14B19684FF4003393FA86
:101C9800A3F3B3FA83F303F01F03012202FA03F359
:101CA8000B4203D06368002B00F0B482236813F062
:101CB800020F00F0C680954B5B6813F00C0F00F024
:101CC8009C80924B5B6803F00C03082B00F08F801C
:101CD8002369002B00F0F380012292FAA2F3B3FAF1
:101CE80083F303F1845303F584139B001A60FEF712
:101CF800A9FA0546022393FAA3F3844B1968022331
:101D080093FAA3F3B3FA83F303F01F03012202FA51
:101D180003F30B4240F0C480FEF794FA401B0228FC
:101D2800E8D9032083E2794A136843F480331360C7
:101D3800764AD36A23F00F03A1680B43D362636822
:101D4800002B36D0FEF77EFA05464FF4003393FA9F
:101D5800A3F36E4B19684FF4003393FAA3F3B3FA65
:101D680083F303F01F03012202FA03F30B429DD110
:101D7800FEF768FA401B6428E7D9032057E2B3F559
:101D8800A02F09D0614B1A6822F480321A601A68B1
:101D980022F480221A60CBE703F18043A3F53C3399
:101DA8001A6842F480221A601A6842F480321A6073
:101DB800BEE7FEF747FA05464FF4003393FAA3F35C
:101DC800524B19684FF4003393FAA3F3B3FA83F331
:101DD80003F01F03012202FA03F30B423FF466AF3C
:101DE800FEF730FA401B6428E6D903201FE2474B70
:101DF8005B6813F4803F7FF46BAF022393FAA3F37D
:101E0800424B1968022393FAA3F3B3FA83F303F05E
:101E18001F03012202FA03F30B4204D02369934201
:101E280001D0012003E23948036823F0F80361690F
:101E3800F82292FAA2F2B2FA82F201FA02F21343FB
:101E48000360236813F0080F00F08C80A369002B4F
:101E580060D0012191FAA1F2B2FA82F22C4B13441C
:101E68009B001960FEF7EEF90546022393FAA3F2E8
:101E780093FAA3F293FAA3F2244A516A93FAA3F3CA
:101E8800B3FA83F303F01F03012202FA03F30B42B0
:101E980068D1FEF7D7F9401B0228E6D90320C6E12E
:101EA8001A48036823F0F8036169F82292FAA2F24B
:101EB800B2FA82F201FA02F213430360C1E7012386
:101EC80093FAA3F3B3FA83F303F1845303F584136A
:101ED8009B0000221A60FEF7B5F90546022393FA23
:101EE800A3F30A4B1968022393FAA3F3B3FA83F313
:101EF80003F01F03012202FA03F30B42A1D0FEF7FD
:101F0800A1F9401B0228E9D9032090E10010024002
:101F180020819010012292FAA2F2B2FA82F2C04B0A
:101F280013449B0000221A60FEF78CF90546022331
:101F380093FAA3F293FAA3F293FAA3F2B94A516A75
:101F480093FAA3F3B3FA83F303F01F03012202FA0F
:101F580003F30B4206D0FEF775F9401B0228E6D9B9
:101F6800032064E1236813F0040F00F0B380AD4B45
:101F7800DB6913F0805F20D1AA4BDA6942F0805206
:101F8800DA61DB6903F080530193019B0125A64BBD
:101F98001B6813F4807F12D0E368012B23D073BB36
:101FA80003F1804303F504331A6A22F001021A622E
:101FB8001A6A22F004021A621AE00025E7E79A4A30
:101FC800136843F480731360FEF73CF90646964B9A
:101FD8001B6813F4807FDFD1FEF734F9801B642877
:101FE800F5D9032023E18F4A136A43F001031362F2
:101FF800E368002B41D0FEF725F906462BE0052BB8
:1020080009D0884B1A6A22F001021A621A6A22F071
:1020180004021A62ECE7834B1A6A42F004021A625D
:102028001A6A42F001021A62E2E77E4B196A022339
:1020380093FAA3F3B3FA83F303F01F03012202FA1E
:1020480003F3194245D1FEF7FDF8801B41F28833AE
:10205800984200F2E180022393FAA3F293FAA3F3E1
:10206800B3FA83F35B0943F00203022BDDD00223AA
:1020780093FAA3F36B4B596AD9E7FEF7E3F80646E0
:1020880015E0684B196A022393FAA3F3B3FA83F3B2
:1020980003F01F03012202FA03F3194219D0FEF7D5
:1020A800D1F8801B41F28833984200F2B7800223AE
:1020B80093FAA3F293FAA3F3B3FA83F35B0943F019
:1020C8000203022BDDD0022393FAA3F3554B596A7E
:1020D800D9E7B5BBE369002B00F0A880514A5268E4
:1020E80002F00C02082A00F0A480022B2FD04FF037
:1020F800807393FAA3F3B3FA83F303F1845303F5DC
:1021080084139B0000221A60FEF79CF804464FF0E7
:10211800007393FAA3F3434B19684FF0007393FAD3
:10212800A3F3B3FA83F303F01F03012202FA03F3C4
:1021380019426BD0FEF786F8001B0228E7D9032066
:1021480075E0384AD36923F08053D361C2E74FF072
:10215800807393FAA3F3B3FA83F303F1845303F57B
:1021680084139B0000221A60FEF76CF805464FF0B6
:10217800007393FAA3F32B4B19684FF0007393FA8B
:10218800A3F3B3FA83F303F01F03012202FA03F364
:10219800194206D0FEF756F8401B0228E7D903205B
:1021A80045E020494B6823F47413626A206A0243AD
:1021B80013434B604FF0807393FAA3F3B3FA83F39E
:1021C80003F1845303F584139B0001221A60FEF780
:1021D80039F804464FF0007393FAA3F3114B1968CA
:1021E8004FF0007393FAA3F3B3FA83F303F01F03DA
:1021F800012202FA03F3194206D1FEF723F8001B65
:102208000228E7D9032012E0002010E000200EE0A9
:102218000120704701200AE0032008E0032006E0BF
:10222800208190100010024000700040002002B091
:1022380070BD0120FBE700BF10B4174B5C6804F0C9
:102248000C03082B26D104F470124FF4701393FA80
:10225800A3F3B3FA83F322FA03F31049C85C0E4BD5
:10226800DB6A03F00F030F2292FAA2F2B2FA82F2AB
:10227800D3400B441A7C14F4803F05D1084B03FB70
:1022880000F05DF8044B7047064BB3FBF2F300FB1C
:1022980003F0F6E70348F4E7001002400C49000891
:1022A80000093D0000127A00002800F0C08070B5D7
:1022B8000446614B1B6803F007038B420CD25E4A4D
:1022C800136823F007030B431360136803F0070335
:1022D8008B4201D0012070BD236813F0020F06D095
:1022E800564A536823F0F003A068034353600D4631
:1022F800236813F0010F5AD06368012B2DD0022BED
:1023080040D0022292FAA2F24C4A1068022292FAB3
:10231800A2F2B2FA82F202F01F02012101FA02F2DD
:10232800104200F0868045494A6822F003021343B0
:102338004B60FDF787FF0646404B5B6803F00C03D4
:102348006268B3EB820F32D0FDF77CFF801B41F24D
:1023580088339842F0D90320BDE74FF4003292FA4F
:10236800A2F2364A10684FF4003292FAA2F2B2FA98
:1023780082F202F01F02012101FA02F20242D2D1D6
:102388000120A8E74FF0007292FAA2F22B4A1068D7
:102398004FF0007292FAA2F2B2FA82F202F01F0231
:1023A800012101FA02F21042BDD1012093E7224B2C
:1023B8001B6803F00703AB420CD91F4A136823F0CC
:1023C80007032B431360136803F00703AB4201D0E4
:1023D800012080E7236813F0040F06D0174A5368DA
:1023E80023F4E063E1680B435360236813F0080F9C
:1023F80007D0124A536823F46053216943EAC103A2
:102408005360FFF719FF0D4B5B6803F0F003F022F0
:1024180092FAA2F2B2FA82F2D340094AD35CD840C7
:10242800084B18600020FDF7CBFE002053E7012081
:10243800704701204FE700BF002002400010024013
:102448004449000834000020014B1868704700BF59
:102458003400002008B5FFF7F7FF074B5B6803F46B
:10246800E0634FF4E06292FAA2F2B2FA82F2D34049
:10247800024AD35CD84008BD001002405449000805
:1024880008B5FFF7E1FF074B5B6803F460534FF4AF
:10249800605292FAA2F2B2FA82F2D340024AD35CB4
:1024A800D84008BD0010024054490008F0B583B078
:1024B8000446036813F4803F48D0934BDB6913F05C
:1024C800805F40F0D580904BDA6942F08052DA6143
:1024D800DB6903F080530193019B01258B4B1B683B
:1024E80013F4807F00F0C680874B1B6A13F4407397
:1024F80022D0626802F440729A421DD08248016A72
:1025080021F440764FF4803393FAA3F2B2FA82F2C0
:102518007F4F3A4492004FF0010CC2F800C093FA82
:10252800A3F3B3FA83F33B449B0000221A600662CC
:1025380011F0010F40F0B380734A136A23F440731B
:1025480061680B431362002D40F0D580236813F0B7
:10255800010F06D06C4A136B23F00303A1680B43E9
:102568001363236813F0020F06D0674A136B23F432
:102578004033E1680B431363236813F0040F06D05C
:10258800614A136B23F4402321690B4313632368C7
:1025980013F0200F06D05C4A136B23F01003E16997
:1025A8000B431363236813F4003F06D0564A53685D
:1025B80023F48003A16B0B435360236813F0400F8F
:1025C80006D0514A136B23F02003216A0B4313638F
:1025D800236813F0080F06D04B4A136B23F44013FB
:1025E80061690B431363236813F0100F06D0464A42
:1025F800136B23F44003A1690B431363236813F49B
:10260800007F06D0404A536823F40003E16A0B4375
:102618005360236813F0800F06D03B4AD36A23F433
:10262800F873616A0B43D362236813F4807F06D082
:10263800354AD36A23F47853A16A0B43D3622368DB
:1026480013F4805F06D0304A136B23F48073216B38
:102658000B431363236813F4005F53D02A4A136BA8
:1026680023F40073616B0B431363002003B0F0BDC8
:10267800002533E7254A136843F480731360FDF798
:10268800E1FD0646214B1B6813F4807F7FF42CAFD5
:10269800FDF7D8FD801B6428F4D90320E6E7FDF791
:1026A800D1FD064615E0184B196A022393FAA3F3E5
:1026B800B3FA83F303F01F03012202FA03F30B4278
:1026C8007FF43AAFFDF7BEFD801B41F28833984294
:1026D80016D8022393FAA3F293FAA3F3B3FA83F377
:1026E8005B0943F00203022BDDD0022393FAA3F324
:1026F800054B596AD9E7D36923F08053D36125E79D
:102708000320B3E70020B1E700100240007000404A
:1027180000819010F8B505460F4616461C4639E06C
:102728002CB1FDF78FFD069BC01AA04232D32A6850
:10273800536823F0E00353606B68B3F5827F0BD0D6
:10274800AB6AB3F5005F14D0012385F85D30002330
:1027580085F85C30032025E0AB68B3F5004F02D064
:10276800B3F5806FECD12A68136823F04003136037
:10277800E6E72A68136823F4005313602A6813688D
:1027880043F400531360DFE70123B34209D0B4F1E7
:10279800FF3FC5D12B689B6837EA0303F4D00023B9
:1027A800F3E70020F8BDF0B583B007460C461546A0
:1027B8001E4602E0B6F1FF3F10D13A689368234005
:1027C800AB423FD0B4F5C06FF4D1002DF2D1137BEA
:1027D800DBB28DF807309DF80730EBE72EB1FDF737
:1027E80031FD089BC01AB042E7D33A68536823F01A
:1027F800E00353607B68B3F5827F0BD0BB6AB3F507
:10280800005F14D0012387F85D30002387F85C301F
:10281800032018E0BB68B3F5004F02D0B3F5806F12
:10282800ECD13A68136823F040031360E6E73A688E
:10283800136823F4005313603A68136843F4005391
:102848001360DFE7002003B0F0BD70B582B0044626
:102858000D46164600920B4600224FF4C051FFF772
:10286800A2FFB8B900962B46002280212046FFF728
:1028780051FFB8B900962B4600224FF4C06120469C
:10288800FFF791FF034650B1236E43F02003236600
:10289800032304E0236E43F0200323660323184632
:1028A80002B070BD236E43F0200323660323F6E7CE
:1028B80070B582B004460D4616464368B3F5827F6C
:1028C8000FD000962B46002280212046FFF722FFDA
:1028D800034698B96268B2F5827F15D0184602B0EF
:1028E80070BD8368B3F5004F02D0B3F5806FE8D1AF
:1028F8002268136823F040031360E2E7236E43F075
:10290800200323660323E9E7A268B2F5004F02D04B
:10291800B2F5806FE2D100962B4600224FF4C061D9
:102928002046FFF740FF03460028D7D0236E43F028
:10293800200323660323D1E7002858D010B50446A6
:102948000023836290F85D30002B45D0022384F881
:102958005D302268136823F040031360E368B3F521
:10296800E06F3ED90022B3F5706F04D0B3F5E06F85
:1029780001D00021A162216B21B9B3F5E06F33D9F1
:10298800022323636368A1680B4321690B436169D0
:102998000B43A16901F400710B43E1690B43216A00
:1029A8000B43A06A216803430B60638B03F00403A5
:1029B800616A0B43616B0B43E1680B432168134366
:1029C8004B602268D36923F40063D361002020663A
:1029D800012384F85D3010BD80F85C3001F0A8FC5C
:1029E800B4E74FF48052BEE701232363CAE701200E
:1029F80070470000034690F85C00012847D001208A
:102A080083F85C00002939D0002A39D093F85D009A
:102A1800C0B2012801D0022033E0032083F85D0012
:102A28000020186699639A87DA871864A3F8440027
:102A3800A3F84600D864DA68B2F5E06F15D9154AEC
:102A48001A659A68B2F5004F12D019684A6842F0C0
:102A5800A0024A601A68116811F0400F15D1116878
:102A680041F04001116000200BE00B4A1A65E8E7CD
:102A780019680A6842F480420A60E6E7012000E02B
:102A88000120002283F85C2070470020F9E702202B
:102A9800704700BFF52C0008D12C000830B490F81E
:102AA8005C40012C6CD0012480F85C4090F85D40BB
:102AB800E4B24568012C10D0B5F5827F06D0022318
:102AC800002280F85C20184630BC70478568002DCD
:102AD8004CD1042C01D00223F2E7002948D0002A67
:102AE80048D0002B48D090F85D40E4B2042C02D0C6
:102AF800052480F85D400024046681638387C387CA
:102B08000264A0F84430A0F84630C368B3F5E06F1B
:102B180021D91C4BC3641C4B0365C368B3F5E06F34
:102B280004D8B0F846309BB2012B19D90268536813
:102B380023F4805353600268536843F0E003536002
:102B480003681A6812F0400F18D11A6842F0400260
:102B58001A600023B4E70D4BC3640D4B0365DCE733
:102B68000268536843F480535360E4E70223A7E7FD
:102B78000123A5E70123A3E70123A1E700239FE79A
:102B88000223A0E7132F0008DB2E0008652E00089B
:102B98000F2E000810B50446806818B96368B3F5AD
:102BA800827F10D094F85C0001285AD0012384F861
:102BB8005C3094F85D00C0B298420DD0022000232A
:102BC80084F85C3010BD13462046042284F85D204A
:102BD8000A46FFF763FFF5E700293CD0002A3CD0FE
:102BE800042384F85D30002323662164A4F844207C
:102BF800A4F84620A363A387E3872365E368B3F5B6
:102C0800E06F1AD92268536823F480535360164B37
:102C1800E364A368B3F5004F17D02268536843F004
:102C28006003536023681A6812F0400F17D11A68BE
:102C380042F040021A600020C1E72268536843F45A
:102C480080535360094BE364E3E72268136823F475
:102C580080431360E1E70120B1E70120AFE70020DE
:102C6800ADE70220AEE700BF852D00085B2D000808
:102C7800704710B582B00446FDF7E4FA226853683D
:102C880023F0A0035360024664212046FFF7DDFDD0
:102C980018B1236E43F020032366A36833B9019368
:102CA8002368DA6801929B680193019B012384F8E9
:102CB8005D30236E23B9204601F0AEF802B010BD96
:102CC800204601F0C9F8F9E708B5836B5A1C8263FE
:102CD80002681B781373C38F013B9BB2C387C38FF2
:102CE8009BB203B108BDFFF7C4FFFBE708B5826BD1
:102CF80003681288DA60836B02338363C38F013BF6
:102D08009BB2C387C38F9BB203B108BDFFF7B1FF66
:102D1800FBE710B504460268536823F0600353606C
:102D2800FDF790FA024664212046FFF7C1FD18B16D
:102D3800236E43F020032366012384F85D30236E5D
:102D48001BB1204601F088F810BD204601F074F848
:102D5800FAE708B50268036C591C0164127B1A7003
:102D6800B0F84630013B9BB2A0F84630B0F8463088
:102D78009BB203B108BDFFF7CCFFFBE708B50368BA
:102D8800DA68036C1A80036C02330364B0F84630C7
:102D9800013B9BB2A0F84630B0F846309BB203B175
:102DA80008BDFFF7B6FFFBE710B50446FDF74AFA82
:102DB8002268536823F020035360024664212046AA
:102DC800FFF743FD18B1236E43F020032366236EFB
:102DD80093B994F85D30DBB2042B06D0012384F854
:102DE8005D302046FFF744FF10BD012384F85D30B5
:102DF800204601F021F8F7E7012384F85D302046EA
:102E080001F02AF8F0E708B5C38F9BB2012B17D958
:102E1800826B03681288DA60836B02338363C38F23
:102E2800023B9BB2C387C38F9BB243B90268536806
:102E380023F080035360B0F846309BB25BB108BD05
:102E4800836B5A1C826302681B781373C38F013B20
:102E58009BB2C387E7E7FFF7A7FFF0E708B5B0F82D
:102E680046309BB2012B24D90368DA68036C1A80B8
:102E7800036C02330364B0F84630023B9BB2A0F8FF
:102E88004630B0F846309BB2012B0CD0B0F8463033
:102E98009BB23BB90268536823F060035360C38F49
:102EA8009BB29BB108BD0268536843F480535360DA
:102EB800ECE70268036C591C0164127B1A70B0F8C5
:102EC8004630013B9BB2A0F84630DFE7FFF76CFFC6
:102ED800E8E708B5826B03681288DA60836B02330F
:102EE8008363C38F013B9BB2C387C38F9BB243B934
:102EF8000268536823F080035360B0F846309BB2F1
:102F080003B108BDFFF750FFFBE708B50368DA68AF
:102F1800036C1A80036C02330364B0F84630013B3B
:102F28009BB2A0F84630B0F846309BB23BB9026875
:102F3800536823F040035360C38F9BB203B108BDAD
:102F4800FFF732FFFBE7000010B584B004460268C3
:102F58005068936803F0410101290AD013F0020F69
:102F68000ED010F0800F0BD0236D2046984704B088
:102F780010BD10F0400FF1D0E36C20469847F6E7FB
:102F880013F4B07FF3D010F0200FF0D013F0400FFF
:102F98000FD094F85D10C9B203294AD0216E41F0D0
:102FA8000401216600210091D16800919168009187
:102FB800009913F0200F0CD0216E41F00101216619
:102FC8000021029191680291116821F0400111607D
:102FD800029A13F4807F09D0236E43F00803236616
:102FE8000023039323689B680393039B236E002BA2
:102FF800BDD02268536823F0E0035360012384F8AE
:103008005D3010F0030F1CD02268536823F00303CF
:103018005360A36D23B10D4A5A63A06DFDF73FFEBF
:10302800636D002BA3D0094A5A63606DFDF737FE24
:103038009DE700230193D368019393680193019B53
:1030480095E7204600F008FF91E700BF59300008D7
:1030580008B5406A0023A0F84630C38700F0FCFE9C
:1030680008BD0268136823F49073136002689368BC
:1030780023F001039360202380F86A30704790F8AA
:103088006930DBB2202B18D1C9B1D2B190F86830C1
:10309800012B18D0C164A0F85020A0F852200023BA
:1030A800C366212280F8692080F8683001680A68C0
:1030B80042F080020A6018467047022070470120DB
:1030C8007047012070470220704790F86A30DBB2E1
:1030D800202B3BD100293BD0002A3BD090F8683008
:1030E800012B39D0012380F868304165A0F85820B9
:1030F800A0F85A208368B3F5805F06D05BB90369EE
:1031080003BBFF23A0F85C3005E00369B3B940F2C4
:10311800FF13A0F85C300023C366222280F86A20DF
:1031280080F8683001688A6842F001028A600168A4
:103138000A6842F490720A6018467047FF23A0F8A4
:103148005C30E8E77F23A0F85C30E4E702207047B2
:1031580001207047012070470220704708B5406A77
:103168000023A0F85A30A0F8523000F015FE08BD30
:1031780010B5044683680269134342691343C26960
:103188001A4301680B6823F4164323F00C03134316
:103198000B600268536823F44053C1680B435360C3
:1031A8008369026A1A4301688B6823F43063134306
:1031B8008B600368914A93421FD0914A93422FD063
:1031C800904A934246D0904A93425DD08F4A9342A8
:1031D80074D01022E169B1F5004F00F08B80082A05
:1031E80000F20A81DFE812F0CE00DA00E6000801FA
:1031F800F200080108010801FE0002F55842126BAE
:1032080002F00302032A09D8DFE802F0020406727A
:103218000122DFE70422DDE70822DBE71022D9E7F5
:1032280002F5E632126B02F44032B2F5803F0BD061
:1032380007D9B2F5003F09D0B2F5403F08D10222C4
:10324800C8E72AB90022C5E70422C3E70822C1E774
:103258001022BFE702F5E432126B02F44022B2F505
:10326800802F0BD007D9B2F5002F09D0B2F5402F27
:1032780008D10222AEE72AB90022ABE70422A9E767
:103288000822A7E71022A5E702F5E232126B02F442
:103298004012B2F5801F0BD007D9B2F5001F09D034
:1032A800B2F5401F08D1022294E72AB9002291E71B
:1032B80004228FE708228DE710228BE702F5E0321F
:1032C800126B02F44002B2F5800F0BD007D9B2F5A9
:1032D800000F09D0B2F5400F08D102227AE72AB9C7
:1032E800002277E7042275E7082273E7102271E7C6
:1032F80002226FE7082A42D8DFE802F005172241C8
:103308002D4141413800FFF7A5F86268530803EBE7
:103318004003B3FBF2F39BB2002023F00F02C3F388
:10332800420313432268D36010BDFFF7A9F862680F
:10333800530803EB4003B3FBF2F39BB20020ECE726
:103348006268530803F5740303F51053B3FBF2F3F3
:103358009BB20020E1E7FEF76FFF6268530803EBBA
:103368004003B3FBF2F39BB20020D6E76268530830
:1033780003F58033B3FBF2F39BB20020CDE70120C5
:103388000023CAE7FFF766F8636800EB5300B0FB59
:10339800F3F0236880B2D8600020C5E7FFF770F823
:1033A800636800EB5300B0FBF3F0236880B2D86089
:1033B8000020B9E761684A0802F5F40202F5905264
:1033C800B2FBF1F292B2DA600020ADE7FEF734FF0B
:1033D800636800EB5300B0FBF3F0236880B2D86059
:1033E8000020A1E761684A0802F50042B2FBF1F249
:1033F80092B2DA60002097E7012095E70038014093
:103408000044004000480040004C0040005000408C
:10341800436A13F0010F06D00268536823F400339F
:10342800816A0B435360436A13F0020F06D00268A7
:10343800536823F48033C16A0B435360436A13F023
:10344800040F06D00268536823F48023016B0B43F2
:103458005360436A13F0080F06D00268536823F4D8
:103468000043416B0B435360436A13F0100F06D0BF
:103478000268936823F48053816B0B439360436A1B
:1034880013F0200F06D00268936823F40053C16B31
:103498000B439360436A13F0400F0AD002685368E5
:1034A80023F48013016C0B435360036CB3F5801F46
:1034B8000BD0436A13F0800F06D00268536823F4D8
:1034C8000023816C0B43536070470268536823F4F0
:1034D800C003416C0B435360EBE72DE9F04105460F
:1034E8000F4616469846069C2B68DB6937EA0303A5
:1034F8000CBF01230023B3421DD1B4F1FF3FF3D029
:103508002CB1FCF79FFEA0EB0800A042ECD92A687A
:10351800136823F4D07313602A68936823F00103B7
:103528009360202385F8693085F86A30002385F890
:103538006830032000E00020BDE8F08130B583B09A
:1035480004460023C366FCF77DFE054623681B6816
:1035580013F0080F0ED123681B6813F0040F17D15E
:10356800202384F8693084F86A30002084F86800E1
:1035780003B030BD6FF07E430093034600224FF442
:1035880000112046FFF7A9FF0028E4D00320EFE749
:103598006FF07E4300932B4600224FF480012046B3
:1035A800FFF79BFF0028DBD00320E1E778B310B5D5
:1035B800044690F869300BB3242384F869302268F4
:1035C800136823F0010313602046FFF7D1FD01289B
:1035D80013D0636ABBB92268536823F490435360DD
:1035E8002268936823F02A0393602268136843F0E3
:1035F800010313602046FFF7A1FF10BD80F8683073
:1036080000F0DCFFD8E72046FFF702FFE3E70120E0
:10361800704790F86930DBB2212B2ED1B0F85230C8
:103628009BB28BB18368B3F5805F19D0C36C5A1C09
:10363800C26402681B781385B0F85230013B9BB214
:10364800A0F85230002070470268136823F0800306
:1036580013600268136843F040031360002070474A
:103668000369002BE2D1C36C02681B88C3F308030B
:103678001385C36C0233C364DEE70220704708B5C4
:1036880001680B6823F040030B60202380F8693041
:1036980000F066FB002008BDB0F85C2090F86A30A6
:1036A800DBB2222B31D110B503689B8C9BB28168A9
:1036B800B1F5805F0ED0D2B2416D4C1C44651A4002
:1036C8000A70B0F85A30013B9BB2A0F85A305BB18F
:1036D800002010BD01690029EDD1416D1A400A8012
:1036E800436D02334365ECE70268136823F4907373
:1036F80013600268936823F001039360202380F825
:103708006A3000F03BFB0020E3E70268936943F06E
:10371800080393610220704738B504460268D369EC
:10372800116813F00F0505D113F0200F02D011F026
:10373800200F60D19068002D72D010F0010502D1E1
:1037480011F4907F6CD013F0010F07D011F4807F33
:1037580004D001201062E26E0243E26613F0020F09
:1037680007D035B1226802201062E26E42F00402EE
:10377800E26613F0040F07D035B122680420106206
:10378800E26E42F00202E26613F0080F09D011F06F
:10379800200F00D12DB1226808201062E26E02438A
:1037A800E266E26E002A4DD013F0200F02D011F02D
:1037B800200F23D1E36E13F0080F04D123689B6810
:1037C80013F0400F26D02046FFF74BFC23689A6879
:1037D80012F0400F1AD09A6822F040029A60636E85
:1037E80083B1234A5A63606EFDF759FA50B3606E8D
:1037F800436B984726E0FFF74FFF23E02046FFF78B
:103808004BFFD7E7204600F0C7FA1BE0204600F040
:10381800C3FA17E0204600F0BFFA0023E36611E080
:1038280013F4801F02D010F4800F0CD113F0800F16
:1038380002D011F0800F12D113F0400F02D011F016
:10384800400F10D138BD4FF480131362202384F841
:10385800693084F86A30204600F00CF8F2E7204618
:10386800FFF7D7FEEEE72046FFF709FFEAE700BFBC
:10387800653100087047000038B505460C462A48EF
:103888002A4B036000230376437683760122C276AF
:10389800037743774FF080428260C3604FF4403330
:1038A80003614FF48013436106234360FCF7E4FC93
:1038B80050BB1F4900234B6101228A61CB616D0116
:1038C8000D6064014C600B610A624B621648FCF79C
:1038D80079FDE0B9174901234B618B610022CA6168
:1038E8002020C8600A610B620E234B620E48FCF769
:1038F80069FD78B90C48FCF7E3FD70B903210A4863
:10390800FCF71BFF60B938BD00F0BEFAD1E700F044
:10391800BBFADFE700F0B8FAECE700F0B5FAEDE73C
:1039280000F0B2FAEFE700BF340200200064004064
:10393800E40100200C020020F0B589B0204BDA69C0
:1039480042F00072DA61DA6902F000720192019ABB
:103958005A6942F400325A615B6903F400330293F6
:10396800029B4FF48053039302270497032606967D
:10397800012505950924079403A94FF09040FDF708
:10398800B3F94FF4006303930497069605950794DB
:1039980003A94FF09040FDF7A7F900221146132024
:1039A800FDF726F81320FDF757F8002211461420DA
:1039B800FDF71EF81420FDF74FF809B0F0BD00BF61
:1039C8000010024010B50A4B0A4A1A6001241C7103
:1039D80098600022DA6059715A619A611C6218462F
:1039E800FDF7C2F800B910BD00F04EFAFBE700BFC2
:1039F8005C020020003002400268094B9A4200D065
:103A0800704782B0A3F500535A6942F040025A61E8
:103A18005B6903F040030193019B02B0704700BF4C
:103A280000300240F0B58DB0002407940894099442
:103A38000A940B943D4B5A6942F400225A615A6920
:103A480002F400220192019A5A6942F480025A61F2
:103A58005A6902F480020292029A5A6942F40032C8
:103A68005A615A6902F400320392039A5A6942F47D
:103A780000125A615A6902F400120492049A5A69AF
:103A880042F480225A615A6902F480220592059A0A
:103A98005A6942F480125A615B6903F480130693F1
:103AA800069B234F22464FF47F413846FDF7E6F93F
:103AB800204E01224FF480713046FDF7DFF90125D1
:103AC80007951D4B0893099407A94FF09040FDF7FF
:103AD8000BF94FF47F430793089509940A9407A9B3
:103AE8003846FDF701F94FF4807307930895099458
:103AF8000A9407A93046FDF7F7F84FF48053079367
:103B080002230893099403230A9305230B9307A917
:103B18000A48FDF7E9F8224621460620FCF768FF27
:103B28000620FCF799FF0DB0F0BD00BF0010024061
:103B380000100048000C0048000011100004004864
:103B480008B54FF47A70FCF783FB00224FF47F41ED
:103B58000348FDF793F94FF47A70FCF779FB08BD39
:103B68000010004808B5154B154A1A60154A5A60E6
:103B780098600222DA604FF400421A61596100220B
:103B88009A614FF40021D9611A621846FDF73BFA91
:103B980050B900210948FDF7E9FF40B9002107485D
:103BA800FEF712F830B908BD00F06EF9F1E700F041
:103BB8006BF9F3E700F068F9F5E700BF8002002031
:103BC800005800402A09C40010B588B000230393A8
:103BD800049305930693079302681C4B9A4201D0FD
:103BE80008B010BD1A4C636943F40033636163691C
:103BF80003F400330193019B4FF4C0630393122332
:103C0800049301230593032306930423079303A92D
:103C18004FF09040FDF768F8E36943F48003E361EF
:103C2800E36903F480030293029B002211462120DA
:103C3800FCF7DEFE2120FCF70FFF002211462220B0
:103C4800FCF7D6FE2220FCF707FFC9E70058004022
:103C58000010024070B400250BE003EB8502825C83
:103C6800DE00B24014440133032BF6DD41F8254051
:103C780001353F2D02DC00231C46F5E770BC704778
:103C880070B5044600211D48FFF79CFE1C4D3E22DE
:103C980021462846FCF7A8FF064600211948FFF7E9
:103CA80091FE3E2221462846FCF79EFF0546D4F8A1
:103CB800F830B34214D001224FF400511248FDF7F6
:103CC800DDF8D4F8FC30AB4211D001224FF400717A
:103CD8000D48FDF7D3F8C4F8F860C4F8FC5070BD7F
:103CE80001224FF400610848FDF7C8F8E9E701220E
:103CF8004FF400410448FDF7C1F8ECE7634E0D109E
:103D08005C0200201160E58C0010004870B5044684
:103D18000D46164610F0010F09D114F0020F0BD111
:103D280014F0080F0DD114F0040F11D170BD4FF429
:103D3800165000F027FCF0E731462846FFF712FF3F
:103D4800EEE7064B4FF482725A6000F0CDFAEAE7CC
:103D580031462846FFF790FDE8E700BF140A002027
:103D680008B50122034B1A704FF480710248FDF721
:103D780085F808BDB80000200010004808B50122E9
:103D8800034B1A704FF480510248FDF777F808BDCD
:103D9800B80000200010004808B501224FF4007157
:103DA8000148FDF76BF808BD0010004808B501226E
:103DB8004FF480710148FDF761F808BD0010004814
:103DC80008B501224FF480510148FDF757F808BDA6
:103DD8000010004808B501224FF480710148FDF732
:103DE8004DF808BD0010004808B501224FF4805175
:103DF8000148FDF743F808BD0010004808B5FDF775
:103E0800B3FE042805D001224FF400710148FDF7E4
:103E180035F808BD0010004808B501224FF480713C
:103E28000348FDF72BF8034B01225A6008BD00BF79
:103E380000100048B800002008B501224FF4805156
:103E48000348FDF71BF8034B01225A6008BD00BF69
:103E580000100048B8000020014B02225A60704749
:103E6800B8000020012800D07047024B01229A6058
:103E7800FAE700BFB8000020024AD3680133D360D4
:103E8800704700BFB800002008B501224FF4007148
:103E98000148FCF7F3FFFEE70010004800B59FB0AB
:103EA8000021169117911A910F9110911191129169
:103EB80013913C22684600F011FC032314934FF43D
:103EC80080331593012218921022199202221B9214
:103ED8001C934FF480131D9314A8FDF7A1FEE8B9B5
:103EE8000F230F9302231093002311934FF4806242
:103EF8001292139301210FA8FEF7D6F980B90A4B45
:103F080000930023039308934FF480030E936846AD
:103F1800FEF7CCFA30B91FB05DF804FBFFF7B4FF29
:103F2800FFF7B2FFFFF7B0FF4200020010B5C0B0C4
:103F3800174C184B224600211748FCF764FBE3682E
:103F48004BB9A3683BB92369082B04D1022000F0C0
:103F580043FA00230AE0FFF797FF104A126903EBC0
:103F6800C2020C49C85C0E4988540133072BF4DDA2
:103F78000A4A136901331361202B01D040B010BDE8
:103F880069460748FFF766FE6846FFF779FEF5E7DA
:103F9800F8080020CC04002034020020B8000020DB
:103FA800D40400204FF48070704700002DE9F041E0
:103FB800C2B001900E4602F0010502F0020802F0BC
:103FC800080702F00404013BDBB2012B0BD8042ADA
:103FD80009D0FF256AE04FF480714748FCF753FF8A
:103FE8006420FCF735F9454B9B68002BF3D001ABF7
:103FF8008DF808307DB90025B8F1000F1ED1002CCE
:1040080053D03F4B1E6000245C60DC609C6008223B
:104018001A611C753FE04FF4807202A93948FFF716
:104028002EF848B9354B1B78DBB2012BFAD1334B4C
:1040380000221A700125DFE7FFF726FF6420FCF74E
:1040480007F94FF4807302AA31462F48FDF73AF872
:1040580038B92D48FDF785FD2028FAD145F002052D
:10406800CDE72948FDF780FD0428F2D0FFF70CFFC3
:1040780003EBC40202A9895C244AD1540133072BFB
:10408800F6DD234B214A1E492248FCF747FA322025
:10409800FCF7DEF801341F2C01DC0023EFE7174B97
:1040A800DB681F2BFBDD45F004051FB9284642B02D
:1040B800BDE8F0813046FFF775FF0446002201464F
:1040C8001548FCF7DBFE4FF4807202A91348FEF78F
:1040D80091FC70B9094B5B68012BFBD10122214689
:1040E8000D48FCF7CBFE054B00225A6045F0080549
:1040F800DCE7FFF7C9FE00BF00100048B800002049
:10410800E0080020780A002080020020D405002062
:10411800DC06002034020020000C0048140A0020AD
:104128002DE9F0410446174601F0020601F00805A2
:1041380011F0010F07D14FF00008FEB9002D35D15D
:104148004046BDE8F0814FF480722C492C48FEF7B8
:10415800BCFF88B92B4B1B78DBB2012BFAD1294B5A
:1041680000221A7021462548FFF774FD2046FFF704
:1041780087FD4FF00108E0E7FFF786FE4FF48072F5
:1041880021492248FCF7EAFF70B92048FDF7E9FC0D
:104198002028FAD121461C48FFF75CFD2046FFF78E
:1041A8006FFD48F00208C9E7FFF76EFE3846FFF7D3
:1041B800F9FE0546002201461548FCF75FFE4FF45C
:1041C800807214491448FEF7E5FCA8B90D4B5B68EA
:1041D800012BFBD1012229460D48FCF74FFE094B64
:1041E80000225A6021460B48FFF734FD2046FFF7AE
:1041F80047FD48F00808A3E7FFF746FEE007002060
:10420800780A0020B8000020CC030020800200209B
:10421800000C0048CC020020140A00202DE9F041CF
:10422800FBF7F2FFFFF73AFEFFF7FCFB0722052139
:104238000120FFF76BFD002000F0B0FA00F056FAFD
:10424800002406E000F076FA214B03EB8403586162
:1042580001343D2CF6DD1E4D0024C5F81041C5F88B
:104268000C4122464FF480711A48FCF707FE21469C
:104278001948FFF7A7FB05F11406184F3E223146EF
:104288003846FCF7B1FC804621461548FFF79AFBF3
:104298003E2231463846FCF7A7FCC5F80C81C5F824
:1042A80010012346012204213046FFF77FFEFFF765
:1042B80047FC0C4C042201212046FFF731FFFFF791
:1042C8003FFC0023012204212046FFF76FFEEEE7A2
:1042D800B800002000100048634E0D105C0200205A
:1042E8001160E58CCC00002008B50F480F4B036027
:1042F800002383604FF4E062C260036143614FF4BE
:10430800007282613822C2610362436283620722BB
:10431800C262036308234363FEF70EFB00B908BDBE
:10432800FFF7B2FDFBE700BF140A00200038004089
:1043380070B588B0002303930493059306930793FD
:104348000268224B9A4201D008B070BD03F5EC33E5
:10435800DA6942F48042DA61DA6902F48042009252
:10436800009A5A6942F480025A615A6902F480023A
:104378000192019A5A6942F480225A615B6903F4F6
:1043880080230293029B4FF4007303930224049446
:10439800032606960525079503A90D48FCF7A4FCF6
:1043A8004FF440430393049400240594069607951C
:1043B80003A90848FCF798FC224621462420FCF76C
:1043C80017FB2420FCF748FBBEE700BF003800407D
:1043D800001400480004004808B5054B03EB8003AF
:1043E8000122044931F810109868FCF747FD08BD10
:1043F800080000202C49000800B583B00E4B9A69CC
:1044080042F001029A619A6902F001020092009A50
:10441800DA6942F08052DA61DB6903F08053019374
:10442800019B002211460520FCF7E2FA0520FCF763
:1044380013FB03B05DF804FB001002407047FEE771
:10444800FEE7FEE7FEE770477047704708B5FBF7E1
:10445800EDFE08BD704708B50120FCF719FD08BD41
:1044680008B50248FCF786F908BD00BF34020020F1
:1044780008B50248FCF77EF908BD00BF34020020E9
:1044880008B50248FCF776F908BD00BF34020020E1
:1044980008B50248FCF76EF908BD00BF34020020D9
:1044A80008B50248FCF78CFE08BD00BF800200205A
:1044B80008B50248FDF705FB08BD00BF80020020D3
:1044C80008B50248FEF740FD08BD00BF140A0020E9
:1044D80008B50248FFF720F908BD00BF780A002098
:1044E80008B503460B4A126842B10A4A10680344E9
:1044F8006A46934206D8074A136008BD054A06492A
:104508001160F2E700F0C0F80C2303604FF0FF30B1
:10451800F3E700BFD0010020F00A00201549D1F8C8
:10452800883043F47003C1F88830134B1A6842F09E
:1045380001021A605868114A02405A601A6822F04B
:10454800847222F480321A601A6822F480221A6077
:104558005A6822F4FE025A60DA6A22F00F02DA621E
:10456800186B074A02401A6300229A604FF00063F2
:104578008B60704700ED00E0001002400CC07FF82F
:10458800CCFC00FF08B50B4B0B4A1A6058600022A0
:104598009A60DA601A610C2159619A61DA611A62CB
:1045A8005A621846FFF702F800B908BDFFF76CFC1D
:1045B800FBE700BF780A00200044004000B589B03E
:1045C8000023039304930593069307930268184BFB
:1045D8009A4202D009B05DF804FB03F5E633DA69C4
:1045E80042F40032DA61DA6902F400320192019A87
:1045F8005A6942F400325A615B6903F4003302934A
:10460800029B0C230393022304930323069307239B
:10461800079303A94FF09040FCF766FB052211466B
:104628002620FCF7E5F92620FCF716FAD2E700BFAA
:1046380000440040DFF834D0002103E00C4B5B5805
:10464800435004310B480C4B42189A42F6D30B4A9C
:1046580002E0002342F8043B094B9A42F9D3FFF7E2
:104668005DFF00F017F8FFF7D9FDFEE700A0002076
:1046780064490008000000209C0000209C000020E5
:10468800EC0A0020FEE70000014B1868704700BFE5
:104698003800002070B50D4E0D4CA41BA410002549
:1046A800A54209D10B4E0C4C00F020F9A41BA41014
:1046B8000025A54205D170BD56F82530984701352B
:1046C800EEE756F8253098470135F2E75C490008CF
:1046D8005C4900085C490008604900080244034638
:1046E800934200D1704703F8011BF9E738B50D4B29
:1046F8001C68A36B05467BB9182000F07BF80A4AB2
:104708000A4BA063C0E90023094B83600B23838114
:1047180001220023C0E90423A36B00221D615A6112
:1047280038BD00BF380000200E33CDAB34126DE623
:10473800ECDE050038B5134B1C68A36B7BB9182059
:1047480000F058F8104A114BA063C0E90023104B41
:1047580083600B23838101220023C0E90423A16B1A
:104768000C480A694B690C4C504304FB0300A2FB3C
:1047780004230344541C43F10005C1E9044525F012
:10478800004038BD380000200E33CDAB34126DE642
:10479800ECDE05002DF451582D7F954C1FB50B4BC1
:1047A800044600226946186800F012F8002805DA65
:1047B8004FF0FF324FF0FF33CDE90023DDE9000170
:1047C8000CB1C4E9000104B010BD00BF38000020DE
:1047D80038B5074C0023054608461146236000F00B
:1047E8007DF8431C02D1236803B12B6038BD00BF9C
:1047F800E80A0020024B0146186800F003B800BF21
:104808003800002070B5CD1C25F0030508350C2DA7
:1048180038BF0C25002D064601DBA94203D90C231D
:104828003360002070BD00F057F8214A1468214613
:1048380091B9204C23681BB9304600F03DF8206040
:104848002946304600F038F8431C24D10C23336045
:10485800304600F042F8E4E70B685B1B18D40B2BDA
:104868000FD90B60CD50CC18304600F036F804F163
:104878000B00231D20F00700C31AD3D05A42E25080
:10488800D0E78C424B6816BF636013600C46EBE7B9
:104898000C464968CCE7C41C24F00304A04205D0A8
:1048A800211A304600F008F80130CFD02560DBE748
:1048B800D8010020DC01002038B5064C002305464D
:1048C80008462360FFF70CFE431C02D1236803B19E
:1048D8002B6038BDE80A002070477047024B582209
:1048E8001A604FF0FF307047E80A0020F8B500BFA3
:1048F800F8BC08BC9E467047F8B500BFF8BC08BCB9
:044908009E46704710
:10490C0002030405060708090A0B0C0D0E0F101004
:10491C000102030405060708090A0B0C0D0E0F1003
:10492C00000200010004008000080040001000207C
:10493C000600000001000000000000000000000064
:10494C000102030406070809000000000102030429
:04495C00AD010008A1
:0449600089010008C1
:104964000100000010000000001000000000010021
:1049740000100048001000480010004800100048D3
:1049840000100048001000480010004800100048C3
:104994000000004800127A003C00002000000000E3
:1049A4000000000000000000000000000000000003
:1049B40000000000000000000000000000000000F3
:1049C40000000000000000000000000000000000E3
:1049D40000000000000000000000000000000000D3
:1049E40000000000000000000000000000000000C3
:0C49F400000000000000000000000000B7
:040000050800463D6C
:00000001FF
