:020000040800F2
:1000000000A00020C15D00088D5700088F57000830
:10001000915700089357000895570008000000000A
:1000200000000000000000000000000097570008DA
:1000300099570008000000009B5700089D570008D2
:10004000115E0008115E0008115E0008115E0008D4
:10005000115E0008A5570008A7570008115E0008A8
:10006000115E0008115E0008115E0008115E0008B4
:10007000115E0008115E0008115E0008115E0008A4
:10008000115E0008115E0008115E0008B1570008FB
:10009000C1570008D1570008E1570008115E000859
:1000A000115E0008115E0008115E0008115E000874
:1000B000115E0008115E0008115E0008115E000864
:1000C000115E0008F157000801580008115E000891
:1000D00011580008115E000821580008115E000840
:1000E000115E0008115E0008115E0008115E000834
:1000F000115E0008115E0008115E0008115E000824
:10010000000000000000000000000000115E000878
:10011000115E0008115E0008115E0008115E000803
:10012000115E0008115E0008115E0008115E0008F3
:10013000115E0008115E00080000000000000000D1
:10014000115E0008115E0008115E0008000000004A
:10015000000000000000000000000000000000009F
:10016000000000000000000031580008415800085D
:10017000115E000800000000000000000000000008
:0801800000000000115E000800
:1001880010B5054C237833B9044B13B10448AFF3C9
:1001980000800123237010BD8801002000000000AA
:1001A8006C5E000808B5034B1BB103490348AFF365
:1001B800008008BD000000008C0100206C5E000873
:1001C80010B504460E4B18784FF47A73B3FBF0F36E
:1001D8000C4A1068B0FBF3F000F080FA68B90F2CF5
:1001E80001D901200AE0002221464FF0FF3000F03B
:1001F80035FA034B5C60002000E0012010BD00BF11
:10020800000000202401002008B5074A136843F0C5
:1002180010031360032000F00FFA0020FFF7D0FF4F
:1002280005F08EFA002008BD00200240034A11683C
:10023800034B1B780B441360704700BFD4030020A6
:1002480000000020014B1868704700BFD40300204D
:1002580038B50446FFF7F6FF0546B4F1FF3F02D074
:10026800044B1B781C44FFF7EDFF401BA042FAD358
:1002780038BD00BF00000020002800F0A18038B57C
:10028800044690F82030D3B12268136823F00203A3
:100298001360FFF7D7FF054623685A6812F0020F6C
:1002A80010D0FFF7CFFF401B0A28F5D9636A43F443
:1002B80000336362052384F82030012038BD04F040
:1002C800D7FDE1E71A6842F001021A60FFF7BAFFAA
:1002D800054623685A6812F0010F0DD1FFF7B2FFE7
:1002E800401B0A28F5D9636A43F400336362052387
:1002F80084F820300120E1E7227E012A3DD01A68E7
:1003080022F080021A60637E012B3BD022681368BA
:1003180023F040031360A37E012B39D022681368B1
:1003280023F020031360E37E012B37D02268136883
:1003380043F010031360237F012B35D02268136824
:1003480023F008031360637F012B33D022681368FE
:1003580023F004031360A368E2681343226913437C
:10036800626913436268013A21681343CB61002034
:100378006062012384F82030A0E71A6842F0800206
:100388001A60C0E72268136843F040031360C2E7AD
:100398002268136843F020031360C4E722681368D7
:1003A80023F010031360C6E72268136843F00803BC
:1003B8001360C8E72268136843F004031360CAE7B0
:1003C8000120704770477047704770477047704703
:1003D80070477047704770477047704770472DE9FE
:1003E800F84F054603685C695F689E68D3F80C900F
:1003F800D3F81080D3F818A014F0010F5AD016F0D3
:10040800010F17D001229A6016F0020F08D116F0DA
:10041800040F30D116F0080F07D04FF4805B0BE0C3
:10042800FFF7D0FF4FF0000B06E0FFF7CEFF4FF0CD
:10043800000B01E04FF0000B16F4807F0BD02B6807
:100448004FF480729A6016F4007F17D116F4806F0B
:1004580018D04BF4005B16F4803F2DD02B684FF476
:1004680080329A6016F4003F16D116F4802F17D008
:100478004BF4004B20E04FF4006BDDE72846FFF714
:10048800A2FFE8E716F4006F02D04BF4804BE2E7D6
:100498002846FFF79BFFDEE72846FFF795FF0BE0AE
:1004A80016F4002F02D04BF4803B05E02846FFF7F6
:1004B8008EFF01E04FF0000B14F0080F07D019F081
:1004C800100F04D04BF4007B2B681022DA6014F074
:1004D800040F02D019F0080F60D114F0020F04D0F5
:1004E8002B68DB6813F0030F5FD114F0400F07D0BF
:1004F80018F0100F04D04BF4806B2B6810221A618F
:1005080014F0200F02D018F0080F52D114F0100F79
:1005180004D02B681B6913F0030F51D114F4003F6A
:1005280002D017F0100F4FD114F4803F02D017F00B
:10053800080F50D114F4004F67D017F0040F61D0A2
:1005480014F4807F04D01AF0010F01D04BF0010B96
:1005580014F4007F04D01AF0020F01D04BF0020B04
:1005680014F4806F04D01AF0040F01D04BF0040B80
:1005780014F4006F46D01AF0700A43D0BAF1300F65
:1005880048D02FD9BAF1500F47D0BAF1600F47D0F1
:10059800BAF1400F31D14BF0400B2EE02B68082206
:1005A800DA602846FFF715FF97E72846FFF710FFA0
:1005B8009BE72B6808221A612846FFF70CFFA5E77E
:1005C8002846FFF707FFA9E72B6810225A6028463C
:1005D800FFF702FFA8E72B6808225A602846FFF7B2
:1005E800FCFEA7E7BAF1100F05D0BAF1200F04D12D
:1005F8004BF0100B01E04BF0080B2A68936923F0CD
:10060800700393612B6804225A60BBF1000F0AD172
:10061800BDE8F88F4BF0200BEFE74BF0800BECE7D1
:100628004BF4807BE9E76B6A43EA0B036B6228466D
:10063800FFF7D4FEECE70000074AD36823F4E06331
:100648001B041B0C000200F4E060184340F0BF607C
:1006580040F40030D060704700ED00E030B4174B34
:10066800DB68C3F30223C3F10704042C28BF042466
:100678001D1D062D18D9033B4FF0FF3505FA04F46C
:1006880021EA0401994005FA03F322EA0303194316
:1006980000280BDB0901C9B200F1604000F5614098
:1006A80080F8001330BC70470023E5E700F00F0026
:1006B8000901C9B2024B1954F4E700BF00ED00E08C
:1006C80014ED00E000F01F02400901239340024AA4
:1006D80042F82030704700BF00E100E00138B0F177
:1006E800807F0AD2064B5860064AF02182F8231010
:1006F8000020986007221A6070470120704700BFE9
:1007080010E000E000ED00E070B400240FE011F804
:10071800246001EB84056B781B0443EA0663AE781A
:1007280043EA0623EE78056833432B600134B4EBC3
:10073800920FECD312F0030205D0012A07D0022A47
:100748000AD0032A12D00368186870BC704703687F
:1007580011F824501D70F2E711F8246001EB8403AE
:100768005B78056843EA06232B80EAE711F82450F2
:1007780001EB84014B78026843EA05231380036880
:100788008A781A70DFE70023B3EB520F18D270B4DF
:1007980031F8236001EB83046488056844EA064461
:1007A8002C600133B3EB520FF2D312F0010F03D0D8
:1007B800026831F8233013800368186870BC7047EA
:1007C80012F0010F03D0026831F823301380036858
:1007D80018687047002838D010B50446437F1BB30B
:1007E8000223637723791BBB2368194A5A6122685D
:1007F800936823F018039360637913BB23684FF061
:10080800FF321A612268936823F0600361690B4321
:1008180093602268936823F08003A1690B43936077
:1008280001236377002010BD037704F08FFBD7E71F
:10083800E268A168204600F03EF80028DCD00120DC
:10084800F1E7236822691A61DCE70120704700BFDD
:10085800B71DC10438B5037F012B2AD004460123F4
:100868000377022343770068836843F001038360BA
:10087800236A022B19D0032B11D0012B11D0002091
:1008880008E0206851F82350056001339342F8D3FB
:1008980023681868012363770023237738BD002372
:1008A800F4E72046FFF730FFF4E72046FFF76BFF39
:1008B800F0E70220F2E710B41F2400E01C460123F1
:1008C800A3400B4203D1631E002CF7D11C46102A0B
:1008D80013D0182A0DD0082A13D00368596101686B
:1008E8008B6823F018031A438A6000205DF8044BD4
:1008F8007047062CF1D90120F8E7072CEDD9012023
:10090800F4E70F2CE9D90120F0E708B590F8213079
:10091800022B03D004238363012008BD02681368F7
:1009280023F00E0313600268136823F001031360B9
:10093800036CC16B012202FA03F34B6080F821209B
:10094800002380F82030436B13B198470020E4E778
:100958000020E2E7F0B482B0002336E0042400E08F
:100968000024B4403C4302355B4E46F825405B4CBE
:100978002568D44304EA05064F6817F4803F01D080
:1009880042EA0506554D2E606D6804EA05064F6873
:1009980017F4003F01D042EA0506504D6E60AD687D
:1009A80004EA05064F6817F4801F01D042EA0506DD
:1009B8004A4DAE60ED682C404E6816F4001F01D019
:1009C80042EA0504454AD46001330A6832FA03F45E
:1009D8007ED001249C402240F6D04D68022D01D0E3
:1009E800122D10D1DE08083650F826C003F007058E
:1009F800AF000F25BD402CEA050C0D69BD4045EA46
:100A08000C0540F8265006685F000325BD40ED43FD
:100A180005EA060C4E6806F00306BE4046EA0C06D8
:100A280006604E6806F1FF3CBCF1010F03D9112E98
:100A380001D0122E10D1866805EA060CCE68BE4099
:100A480046EA0C068660466826EA04044E68C6F341
:100A580000169E4026434660C46825408C68BC400A
:100A68002C43C4604C6814F0805FADD01C4CA56961
:100A780045F00105A561A46904F001040194019CF5
:100A88009D08AE1C144C54F8267003F00304A6000D
:100A98000F24B44027EA0407B0F1904F3FF460AF49
:100AA800104CA0420ED004F58064A0420CD004F58E
:100AB8008064A0420AD004F58064A0423FF44EAF9F
:100AC80005244EE701244CE702244AE7032448E7BB
:100AD80002B0F0BC704700BF0000014000040140B4
:100AE80000100240000400480369194201D10020A7
:100AF8007047012070470AB9816270478161704769
:100B0800436959404161704708B5054B5B69034229
:100B180000D108BD024B586104F012FCF9E700BF90
:100B28000004014003689A6912F0020F01D0002204
:100B38009A6203689A6912F0010F03D19A6942F028
:100B480001029A61704770B4039E05686868740D65
:100B580004F4806444F07F7444F4583444F47F749B
:100B680044F0030420EA0400C1F3090141EA024108
:100B7800194331430143696070BC7047436B1E4A97
:100B8800934217D01D4A934214D011F0040F30D16C
:100B9800002311F0010F01D043F0F20311F0020F0E
:100BA80001D043F0F40301F01201122910D143F0EF
:100BB80020030DE011F0040F10D1002301F0110201
:100BC800112A0DD001F0120112290CD012290DD0D2
:100BD80001680A6813430B6000207047B823EDE7EB
:100BE80043F09003EEE743F02003EFE743F04003C0
:100BF800EEE7B823CDE700BF69140008F712000834
:100C080010B411F0010F09D090F8413003F0280317
:100C1800282B01D0F22302E0422300E0002311F048
:100C2800020F09D043F0440490F8412002F0280252
:100C3800282A19D043F0F40311F0040F01D043F02F
:100C4800B80301F01102112A10D001F01201122983
:100C58000FD0122910D001680A6822EA03030B603A
:100C680000205DF8044B70472346E5E743F0900306
:100C7800EBE743F02003ECE743F04003EBE7002801
:100C880059D010B5044690F84130002B43D02423A6
:100C980084F841302268136823F001031360636805
:100CA800226823F0706313612268936823F4004379
:100CB8009360E368012B33D0A368226843F40443AC
:100CC8009360E368022B31D02268536843F00073C5
:100CD80043F4004353602268D36823F40043D3608D
:100CE800236962691343A169226843EA0123D36037
:100CF800E369216A22680B4313602268136843F092
:100D08000103136000206064202384F841302063CD
:100D180084F8420010BD80F8403004F0F3F9B6E7DB
:100D2800A368226843F400439360CAE723684FF43A
:100D380000625A60C8E701207047000038B590F893
:100D48004130DBB2202B22D190F84030012B20D04B
:100D5800012380F84030212380F84130202380F897
:100D680042300024446405686B6823F400436B60D8
:100D780041624285438D0385074BC362074B43633A
:100D880080F840400521FFF7F9FE204600E00220E8
:100D980038BD0220FCE700BF0000FFFFAD110008CE
:100DA80038B590F84130DBB2202B22D190F8403092
:100DB800012B20D0012380F84030222380F84130D5
:100DC800202380F842300024446405686B6823F4CB
:100DD80000436B6041624285438D0385074BC362C4
:100DE800074B436380F840400621FFF7C7FE2046C3
:100DF80000E0022038BD0220FCE700BF0000FFFF32
:100E0800AD11000808B5036899691A68436B03B106
:100E1800984708BD7047704710B50446002380F80E
:100E2800423090F84130DBB2292B05D090F84130A0
:100E3800DBB22A2B0FD010BD282380F841302123A4
:100E480003630121FFF7DCFE002384F840302046CD
:100E580004F02EFAEFE7282380F8413022230363B9
:100E68000221FFF7CDFE002384F84030204604F02D
:100E780029FAE0E77047F8B590F8413003F0280305
:100E8800282B06D003680822DA61002380F8403056
:100E9800F8BD044603689E69C6F300469A69120CB9
:100EA80002F0FE059A68C2F30902DF6807F0FE0740
:100EB800C168022921D185EAD21515F0060F10D193
:100EC800816C01318164816C0229E1D10021816446
:100ED8000820D86184F8401031462046FFF7CAFF41
:100EE800D6E70421FFF78CFE002384F840303A4609
:100EF80031462046FFF7BEFFCAE70421FFF780FE10
:100F0800002384F840302A4631462046FFF7B2FFD6
:100F1800BEE7704710B50446164BC362002303634F
:100F2800202280F8412080F84230436311F0040FFA
:100F380011D003685A6A436A591C41621A70038DBA
:100F48004BB1013B0385438D013B9BB24385436C09
:100F580043F00403436407212046FFF751FE23684A
:100F68001022DA61002384F840302046FFF7D1FFD1
:100F780010BD00BF0000FFFF7047704770470000BA
:100F880010B50446002380F842303A4AC2624385CD
:100F9800436C1943416490F84130DBB2282B09D0E7
:100FA80090F84130DBB2292B04D090F84130DBB205
:100FB8002A2B1FD103212046FFF722FE282384F87D
:100FC8004130002323632C4B636323681A6812F4AF
:100FD800804F1ED11A6812F4004F2DD194F8413079
:100FE800DBB2602B3BD0002384F84030204604F06D
:100FF80073F910BD0721FFF703FE94F84130DBB207
:10100800602B02D0202384F84130002323636363DC
:10101800DBE71A6822F480421A60A36B174A5A6306
:10102800002384F84030A06BFFF76FFC0028E0D065
:10103800A06B436B9847DCE71A6822F400421A60F9
:10104800E36B0E4A5A63002384F84030E06BFFF7E5
:101058005CFC0028CDD0E06B436B9847C9E72023A0
:1010680084F84130002384F840302046FFF786FF9B
:10107800BFE700BF0000FFFFAD110008B71500086B
:1010880038B504460D4603682022DA610368082251
:10109800DA610721FFF7B4FD2268536843F400437F
:1010A80053602268536823F0FF7323F48B3323F4CF
:1010B800FF7323F0010353602046FFF733FD2268D6
:1010C800136813F4804F03D1136813F4004F09D049
:1010D80094F84130DBB2212B39D0E36B1B685B6895
:1010E8009BB26385638D9BB21BB1636C43F00403B1
:1010F800636415F0040F10D0526A636A591C616268
:101108001A70238D4BB1013B2385638D013B9BB244
:101118006385636C43F0040363640023236384F8EA
:1011280042306363636CBBB9E36A13F5803F21D136
:1011380094F84130DBB2222B28D0202384F84130A8
:10114800002384F84030204604F0B2F81DE0A36B79
:101158001B685B689BB2C4E7616C2046FFF710FF11
:1011680094F84130DBB2282B0FD129462046FFF7EF
:10117800D1FE0AE00A4BE362202384F841300023C1
:1011880084F840302046FFF7C4FE38BD202384F899
:101198004130002384F84030204604F093F8F4E707
:1011A8000000FFFF90F84030012B00F09E8070B5E2
:1011B80016460D460446012380F8403011F0100F02
:1011C8003FD012F0100F3CD0438D9BB243BBC36A93
:1011D800B3F1007F03D0C36AB3F1007F04D194F860
:1011E8004130DBB2282B0CD0E36A13F5803F04D0E2
:1011F80094F84130DBB2292B08D023681022DA6139
:1012080015E029462046FFF785FE10E023681022E6
:10121800DA612046FFF786FC2046FFF7FDFD06E071
:1012280003681022DA61436C43F00403436415F049
:10123800200F02D016F0200F52D1002084F8400071
:1012480070BD15F0040F1ED016F0040F1BD0638D6F
:101258009BB263B123685A6A636A591C61621A7047
:10126800238D013B2385638D013B9BB26385638D91
:101278009BB2002BDBD1E36A13F5803FD7D0204621
:10128800FFF7CAFDD3E715F0080F02D016F0080FD4
:1012980016D115F0020FCAD016F0020FC7D0638D11
:1012A8009BB293B1636A5A1C626222681B7893628C
:1012B800638D013B9BB26385238D013B2385B6E794
:1012C80029462046FFF7D7FDB1E7E36AB3F1807FEF
:1012D80002D0E36A002BAAD12046FFF79DFDA6E7BE
:1012E80029462046FFF7CCFEA7E70220704790F872
:1012F8004030012B41D010B50446012380F840301E
:1013080011F0100F21D012F0100F1ED090F84130BC
:10131800DBB2212B0AD0C36B1B685B68B3FA83F37B
:101328005B0953B123681022DA611EE0836B1B68E6
:101338005B68B3FA83F35B09F3E723681022DA6189
:10134800636C43F0040363640FE011F0080F06D0E8
:1013580012F0080F03D023680822DA6105E011F0C3
:10136800200F02D012F0200F03D1002084F8400093
:1013780010BD2046FFF784FEF7E70220704710B53E
:10138800044603682022DA610268536823F0FF7379
:1013980023F48B3323F4FF7323F0010353600023FA
:1013A80003634363A3F58033C36211F0100F06D0C3
:1013B80003681022DA61436C43F004034364204657
:1013C800FFF7B0FB03212046FFF71AFC636CFBB95B
:1013D80094F84130DBB2602B1AD094F84130DBB27C
:1013E800212B1AD094F84130DBB2222B14D12023C0
:1013F80084F8413094F84230DBB2402B27D00023E8
:1014080084F8423084F840302046FFF704FD03E0BA
:10141800616C2046FFF7B4FD10BD202384F84130ED
:1014280094F84230DBB2402B08D0002384F84230D5
:1014380084F840302046FFF7EDFCEDE7002384F800
:10144800423084F840302046FFF796FDE4E7002359
:1014580084F8423084F840302046FFF78EFDDBE701
:1014680090F84030012B6AD010B582B004460123B1
:1014780080F8403011F0100F02D012F0100F31D167
:1014880011F0800F4CD012F0400F49D02268136839
:1014980023F040031360638D9BB2002B3BD023687D
:1014A8005968C1F30901638D9BB2FF2B28D9FF232B
:1014B80023854FF0807394F8282000200090204660
:1014C800FFF741FB638D228D9B1A9BB2638594F8CD
:1014D8004130DBB2222B18D02268136843F48043D2
:1014E800136023E003681022DA61436C43F00403BD
:1014F80043641221FFF742FB2046FFF713FB15E078
:10150800638D23854FF00073D5E72268136843F491
:10151800004313600AE040212046FFF731FD05E053
:1015280011F0200F02D012F0200F04D1002084F80F
:10153800400002B010BD2046FFF721FFF6E7022069
:10154800704710B502689369116813F4807F09D059
:1015580011F0800F06D0446C44F0010444644FF449
:101568008074D46113F4806F0AD011F0800F07D013
:10157800426C42F00802426402684FF48064D4610D
:1015880013F4007F0AD011F0800F07D0436C43F0AA
:101598000203436403684FF40072DA61436C13F08A
:1015A8000B0F00D110BD416CFFF7EAFCFAE708B554
:1015B800406A0268536843F400435360826B002317
:1015C8005363C26B536390F84130DBB2602B02D097
:1015D80003F082FE08BD202380F84130FFF7CEFCDF
:1015E800F8E790F841007047406C704790F8413038
:1015F800DBB2202B24D190F84030012B22D00123DC
:1016080080F84030242380F841300268136823F0C2
:10161800010313600268136823F48053136002689F
:101628001368194311600268136843F001031360DB
:10163800202380F84130002380F840301846704756
:10164800022070470220704790F84130DBB2202B0F
:1016580022D190F84030012B20D0012380F840306F
:10166800242380F841300268136823F001031360D3
:101678000268136823F4706343EA01211160026869
:10168800136843F001031360202380F841300023DE
:1016980080F8403018467047022070470220704793
:1016A80000284FD010B5044690F8713323B10323B6
:1016B80084F87133002214E080F8703304F0AAF93A
:1016C800F5E7D100891A8B002344012183F82910FA
:1016D80083F82820002183F82B1059639963D96374
:1016E800013260689042ECD8002211E0D100891ADA
:1016F8008B002344002183F8CD1183F8CC2183F893
:10170800CF11C3F8D811C3F8DC11C3F8E0110132C6
:101718009042EBD822680123A2F8403022680020CA
:10172800A2F840002268A2F844002268A2F85000FB
:1017380022684FF43F41A2F8401084F8240084F84E
:10174800713310BD0120704708B5012104F0A1FADA
:10175800002008BD90F87033012B0FD0012380F8CA
:10176800703341B903688022A3F84C20002380F825
:1017780070331846704780F82410F7E70220704746
:1017880070B44DB2002D1EDB01F07F06C6EBC60615
:10179800B40004F5E4740444043401F07F012170BA
:1017A800ED0F6570E260E37090F87033012B00F084
:1017B800B881012380F87033E378032B18D8DFE869
:1017C80003F00A7F647101F07F06C6EBC606B40019
:1017D80028340444E1E70268217832F821309BB2CA
:1017E80023F4EC4323F0700343F4007322F8213010
:1017F8000168227831F8223023F0F0031B051B0D15
:10180800134343F4004343F0800321F82230A37AC2
:10181800002B40F0BA806378002B5FD0A288036861
:10182800B3F85010257801EBC50103EB410322F012
:101838000102A3F800240268217832F8213013F05D
:10184800400F0BD032F8213023F0F0031B051B0D9D
:1018580043F4004343F0C00322F8213002682178A2
:1018680032F821309BB223F4E04323F0400383F0A5
:10187800200343F4004343F0800322F8213000237F
:1018880080F87033184670BC70470268217832F8C7
:1018980021309BB223F4EC4323F070039BB222F86F
:1018A8002130A5E70268217832F821309BB223F471
:1018B800EC4323F0700343F4C06322F8213097E728
:1018C8000268217832F821309BB223F4EC4323F0EC
:1018D800700343F4806322F8213089E7A188026805
:1018E800B2F85030257803EBC503043302EB430309
:1018F80021F00102A3F800240268B2F850302178E0
:1019080003EBC103063302EB4303E2683E2A31D9F5
:10191800C2F34F1112F01F0F01D1013989B26FEADA
:10192800C1616FEA5141A3F800140268217832F8C6
:10193800213013F4804F0BD032F8213023F0F0031C
:101948001B051B0D43F4404343F0800322F821306C
:101958000268217832F821309BB223F4804323F0C7
:10196800700383F4405343F4004343F0800322F8A8
:10197800213084E7C2F34F0112F0010F01D0013189
:1019880089B28902A3F80014CFE70268217832F8F7
:10199800213023F4F8731B051B0D43F4014343F076
:1019A800800322F82130E2880368B3F850102578C4
:1019B80001EBC50103EB410322F00102A3F8002467
:1019C80021890268B2F85030257803EBC503043347
:1019D80002EB430321F00102A3F800246378002BF3
:1019E80050D10268217832F8213013F4804F0BD09F
:1019F80032F8213023F0F0031B051B0D43F440435C
:101A080043F0800322F821300268217832F821302F
:101A180013F0400F0BD032F8213023F0F0031B05F0
:101A28001B0D43F4004343F0C00322F82130026841
:101A3800217832F8213023F0F0031B051B0D43F405
:101A4800004343F0C00322F821300268217832F8BD
:101A580021309BB223F4804323F0700383F4405376
:101A680048F280052B4322F821300268217832F8A9
:101A780021309BB223F4E04323F040032B4322F8A8
:101A88002130FCE60268217832F8213013F4804FC7
:101A98000BD032F8213023F0F0031B051B0D43F463
:101AA800404343F0800322F821300268217832F85D
:101AB800213013F0400F0BD032F8213023F0F0031F
:101AC8001B051B0D43F4004343F0C00322F82130EB
:101AD8000268217832F8213023F0F0031B051B0D32
:101AE80043F4404343F0800322F82130036821780F
:101AF80033F8212092B222F4E04222F0400248F268
:101B080080052A4323F821200268217832F8213001
:101B18009BB223F4804323F070032B4322F8213037
:101B2800ADE60220AFE630B44AB2002A42DB01F04B
:101B38007F04C4EBC404A30003F5E4730344043333
:101B480001F07F011970D20F5A7090F87023012AA2
:101B580000F0FC80012280F870239A7A002A54D180
:101B68005A787AB301681C7831F8242012F0400FB3
:101B78000BD031F8242022F0F0021205120D42F4A5
:101B8800004242F0C00221F824200268197832F895
:101B980021309BB223F4E04323F0400343F4004395
:101BA80043F0800322F82130002380F87033184670
:101BB80030BC704701F07F04C4EBC404A300283391
:101BC8000344BDE701681C7831F8242012F4804FE3
:101BD8000BD031F8242022F0F0021205120D42F445
:101BE800404242F0800221F824200268197832F835
:101BF80021309BB223F4804323F0700343F4004365
:101C080043F0800322F82130CEE75A78002A4ED1DB
:101C180001681C7831F8242012F4804F0BD031F879
:101C2800242022F0F0021205120D42F4404242F044
:101C3800800221F8242001681C7831F8242012F051
:101C4800400F0BD031F8242022F0F0021205120DBB
:101C580042F4004242F0C00221F8242001681C78B6
:101C680031F8242022F0F0021205120D42F400424D
:101C780042F0C00221F8242001681D7831F825209F
:101C880092B222F4804222F0700248F28004224389
:101C980021F825200268197832F821309BB223F404
:101CA800E04323F04003234322F821307CE7016816
:101CB8001C7831F8242012F4804F0BD031F82420FE
:101CC80022F0F0021205120D42F4404242F0800266
:101CD80021F8242001681C7831F8242012F0400FE4
:101CE8000BD031F8242022F0F0021205120D42F434
:101CF800004242F0C00221F8242001681C7831F823
:101D0800242022F0F0021205120D42F4404242F063
:101D1800800221F8242001681D7831F8252092B22C
:101D280022F4E04222F0400248F28004224321F8E3
:101D380025200268197832F821309BB223F48043B9
:101D480023F07003234322F821302DE702202FE7E8
:101D580070B401F07F01CD006D1AAC000444C4F8E2
:101D6800DC21C4F8E0310022C4F8E42184F8CD2154
:101D780084F8CC11D4F8D821934244D9C1EBC105D9
:101D8800AC0004449B1AC4F8E031C1EBC104A300C1
:101D9800034493F8D631002B49D10468B4F8503085
:101DA800C1EBC106B500054495F8CC5103EBC5035A
:101DB800063304EB43033E2A2ED9C2F34F1412F024
:101DC8001F0F01D1013CA4B26FEAC4646FEA544406
:101DD800A3F800440268C1EBC1018B00184490F8D5
:101DE800CC1132F821309BB223F4804323F07003E6
:101DF80083F4405343F4004343F0800322F8213036
:101E0800002070BC7047C1EBC104A200024400244A
:101E1800C2F8E0411A46B8E7C2F34F0412F0010FC6
:101E280001D00134A4B2A402A3F80044D2E7C1EB64
:101E3800C104A300034493F8CD3143BB0468B4F84C
:101E48005030C1EBC106B500054495F8CC5103EB01
:101E5800C503063304EB43033E2A0DD9C2F34F14DE
:101E680012F01F0F01D1013CA4B26FEAC4646FEAFB
:101E78005444A3F80044ADE7C2F34F0412F0010F35
:101E880001D00134A4B2A402A3F80044A2E7012BB4
:101E9800A0D10468B4F85030C1EBC106B5000544C0
:101EA80095F8CC5103EBC503063304EB4303A3F8C1
:101EB80000248FE701F07F01C1EBC1018B001844BA
:101EC800B0F8E4017047F8B5054601F07F04E0007A
:101ED800001B810029448A63CB6300220A64012223
:101EE80081F8292081F828404F6BBB423CD9DB1B85
:101EF800CB63C4EBC4039A002A4492F83230002B17
:101F08003AD02868C4EBC40293002B4493F82830D5
:101F180030F8233013F0400F43D0C4EBC4029300D1
:101F28002B441A8EE3001B1B9E002E44BBB2B16BE0
:101F380000F01DFC96F82930002B38D0012B45D134
:101F48002A68C4EBC4018B002B4493F8281032F89C
:101F5800213023F0F0031B051B0D43F4404343F0ED
:101F6800800322F8213031E0C4EBC4018A002A44FE
:101F78000021D1631F46BCE7BFB216463B46928D8F
:101F8800B16B286800F0F3FB2A68B2F8503096F875
:101F9800281003EBC103023302EB4303A3F80074D8
:101FA80014E0C4EBC40293002B44DA8DBAE72A6824
:101FB80096F8281032F8213023F0F0031B051B0D8A
:101FC80043F4004343F0C00322F821302A68C4EBED
:101FD800C404A3001D4495F8281032F821309BB2A0
:101FE80023F4E04323F0400383F0300343F4004339
:101FF80043F0800322F821300020F8BD70B582B08C
:1020080005460023ADF804302868B0F844309BB288
:10201800ADF8063013F4004F00F02582BDF80640F5
:1020280014F00F0440F0C080BDF8063013F0100F14
:102038004FD003889BB2ADF80430BDF8043013F4D8
:10204800006F78D1BDF8043013F4004FDCD003885A
:1020580023F070031B051B0D03802868B0F850306F
:1020680095F8CC2103EBC203063300EB4303B3F826
:102078000034C3F30903C5F8E431002B7BD10021F8
:10208800284603F01BFD2B68B3F85020063203EBFB
:102098004203D5F8D8213E2A7BD9C2F34F1112F05A
:1020A8001F0F01D1013989B26FEAC1616FEA51414D
:1020B800A3F800142A6813889BB223F4804323F002
:1020C800700383F4405343F4004343F080031380C8
:1020D8009AE703889BB223F4E14323F070039BB291
:1020E80003802A68B2F8503095F8281003EBC10332
:1020F800023302EB4303B3F80034C3F309032B6440
:10210800AA6B1344AB630021284603F0E3FC95F85F
:102118002430002B3FF478AFEB6B002B7FF474AFC7
:1021280095F824302A6843F08003A2F84C30002345
:1021380085F8243068E7B0F8503095F8CC2103EBE7
:10214800C203063300EB4303B3F80034C3F30903B7
:10215800C5F8E431B5F8D02105F55D7100F01DFB37
:102168002A68138823F070031B051B0D138028466B
:1021780003F09CFC48E7B5F8D021D5F8DC1100F055
:102188000CFBD5F8E421D5F8DC311344C5F8DC3173
:1021980075E7C2F34F0112F0010F01D0013189B286
:1021A8008902A3F8001485E730F824309BB2ADF813
:1021B8000430BDF8043013F4004F36D1BDF80430B4
:1021C80013F0800F3FF420AF2A6832F824309BB216
:1021D80023F4E14323F070039BB222F82430C4EBCC
:1021E800C40293001A462B4493F83230002B40F077
:1021F800C3802868B0F850302A4492F8281003EBBE
:10220800C103023300EB4303B3F80034C3F30903FB
:102218001364002B00F0E180E200121B91002944B6
:102228008A8D896B00F0A3FAD7E030F8243023F0C8
:1022380070031B051B0D20F82430C4EBC402930067
:102248001A462B4493F8D631CBB92868B0F85030E9
:1022580011462A4492F8CC2103EBC203063300EB63
:102268004303B3F80064C6F309069EB32944334612
:10227800B1F8D021D1F8DC1100F08FFA2AE02868F3
:10228800C4EBC40293002B4493F8CC2130F82230DD
:1022980013F4804F4DD0B0F8503003EBC203023333
:1022A80000EB4303B3F80064C6F30906AEBB2A6823
:1022B800C4EBC4018B002B4493F8CC1132F82130C5
:1022C80023F0F0031B051B0D43F4004343F0C00348
:1022D80022F82130E200121B93002B44D3F8E421AA
:1022E8003244C3F8E421D3F8DC213244C3F8DC21BA
:1022F800D3F8E0313BB1C4EBC40081002944D1F8E4
:10230800D8118E422ED2C4EBC40293002B4493F80A
:10231800CC11284603F0D2FB50E7E3001B1B9900C1
:1023280029443346B1F8D221D1F8DC1100F035FA4E
:10233800BDE7B0F8503003EBC203063300EB4303AC
:10234800B3F80064C6F30906002EB0D0E3001B1BE7
:10235800990029443346B1F8D421D1F8DC1100F0B2
:102368001CFAA4E7C4EBC4008100294491F8CC11FD
:102378002846FFF7EDFC21E72868C4EBC402930068
:102388002B4493F8282030F8223013F0400F47D020
:10239800B0F8503003EBC203023300EB4303B3F849
:1023A8000034C3F30903C4EBC4018A0011462A446C
:1023B80013647BBB2A68C4EBC4018B002B4493F8DD
:1023C800281032F8213023F0F0031B051B0D43F4CD
:1023D800404343F0800322F821302968B1F85020A7
:1023E800E000001B83002B4493F8280002EBC00296
:1023F800023201EB4202B2F80024C2F309021A6465
:10240800996B0A449A63DB6B1BBB0146284603F0B1
:1024180061FBF9E52944CA8D896B00F0A8F9C9E781
:10242800B0F8503003EBC203063300EB4303B3F8B4
:102438000034C3F30903C4EBC4018A0011462A44DB
:102448001364002BB6D029440A8E896B00F08FF9EB
:10245800B0E7C4EBC404A100294491F82810284629
:10246800FFF731FDD0E5002002B070BD10B504467D
:102478000368B3F8443013F4004F4ED12368B3F81F
:10248800442012F4806F4BD12368B3F8442012F42F
:10249800804F03D04BF6FF72A3F844202368B3F8AB
:1024A800442012F4005F03D04DF6FF72A3F84420D5
:1024B8002368B3F8442012F4805F3DD12368B3F851
:1024C800442012F4006F17D0B3F8402042F00802FD
:1024D800A3F8402023684FF2FF72A3F84420226833
:1024E800B2F8403043F00403A2F840302368B3F850
:1024F800443013F4805F39D02368B3F8442012F4D1
:10250800007F37D12368B3F8442012F4807F03D0CA
:102518004FF6FF62A3F8442010BDFFF76FFDADE74B
:102528004FF6FF32A3F84420204603F0E4FA0021D6
:102538002046FFF70FF9A7E7B3F8402092B222F040
:10254800040292B2A3F840202268B2F840309BB24D
:1025580023F008039BB2A2F84030204603F0ECFABF
:1025680023684EF6FF72A3F84420A7E7204603F03D
:10257800D3FAC1E74FF6FF52A3F84420204603F0F0
:10258800B4FABFE790F87033012B59D010B4012387
:1025980080F870334AB2002A27DBC1EBC104A300DC
:1025A80003F5E4730344043301249C7001F07F01B4
:1025B8001970D20F5A7001BB026832F821309BB2F1
:1025C80023F4804323F0400383F4805383F0100303
:1025D80043F4004343F0800322F82130002380F8BD
:1025E800703318465DF8044B704701F07F04C4EB64
:1025F800C404A30028330344D6E782B1026832F842
:1026080021309BB223F4E04323F0400383F010030E
:1026180043F4004343F0800322F82130DEE70268E8
:1026280032F821309BB223F4804323F0700383F403
:10263800805343F4004343F0800322F82130CDE770
:102648000220704710B44AB2002A41DBC1EBC10432
:10265800A30003F5E4730344043300249C7001F0E1
:102668007F011970D20F5A7090F87023012A5CD03C
:10267800012280F870235A7892B301681C7831F8E7
:10268800242012F0400F0BD031F8242022F0F00261
:102698001205120D42F4004242F0C00221F8242033
:1026A8000268197832F821309BB223F4E04323F012
:1026B800400383F0300343F4004343F0800322F8DF
:1026C8002130002380F8703318465DF8044B7047BA
:1026D80001F07F04C4EBC404A30028330344BCE71F
:1026E80001681C7831F8242012F4804F0BD031F89F
:1026F800242022F0F0021205120D42F4404242F06A
:10270800800221F824200268197832F821309BB21F
:1027180023F4804323F0700383F4405343F40043CD
:1027280043F0800322F82130CBE70220CDE710B434
:1027380011F0800F10D001F07F01C1EBC1018C00B6
:102748002834204482B101228272C3801B0C038189
:1027580000205DF8044B7047C1EBC1018C0004F503
:10276800E47420440430EDE782728380F0E701339B
:102778005B0800EB420202F580626BB110B40C7882
:10278800487844EA002422F8044B0231013B002B2C
:10279800F5D15DF8044B7047704770B45E0800EBE4
:1027A800420202F5806208E032F8044B0D4605F853
:1027B800024B240A4C70013E2946002EF4D113F036
:1027C800010F01D013880B7070BC7047002800F00F
:1027D800F58270B582B00446036813F0010F3BD050
:1027E800B54B5B6803F00C03042B1ED0B24B5B683F
:1027F80003F00C03082B13D06368B3F5803F68D04F
:10280800002B40F0928003F1804303F504331A68EB
:1028180022F480321A601A6822F480221A605DE07D
:10282800A54B5B6813F4803FE6D04FF4003393FA6E
:10283800A3F3A14B19684FF4003393FAA3F3B3FA47
:1028480083F303F01F03012202FA03F30B4203D0C0
:102858006368002B00F0B482236813F0020F00F0C5
:10286800C680954B5B6813F00C0F00F09C80924B70
:102878005B6803F00C03082B00F08F802369002BA2
:1028880000F0F380012292FAA2F3B3FA83F303F182
:10289800845303F584139B001A60FDF7D3FC0546A7
:1028A800022393FAA3F3844B1968022393FAA3F340
:1028B800B3FA83F303F01F03012202FA03F30B4276
:1028C80040F0C480FDF7BEFC401B0228E8D9032075
:1028D80083E2794A136843F480331360764AD36AF3
:1028E80023F00F03A1680B43D3626368002B36D033
:1028F800FDF7A8FC05464FF4003393FAA3F36E4B9B
:1029080019684FF4003393FAA3F3B3FA83F303F08F
:102918001F03012202FA03F30B429DD1FDF792FC3B
:10292800401B6428E7D9032057E2B3F5A02F09D04C
:10293800614B1A6822F480321A601A6822F48022E5
:102948001A60CBE703F18043A3F53C331A6842F4DD
:1029580080221A601A6842F480321A60BEE7FDF7D6
:1029680071FC05464FF4003393FAA3F3524B1968F0
:102978004FF4003393FAA3F3B3FA83F303F01F037E
:10298800012202FA03F30B423FF466AFFDF75AFC4B
:10299800401B6428E6D903201FE2474B5B6813F409
:1029A800803F7FF46BAF022393FAA3F3424B19687D
:1029B800022393FAA3F3B3FA83F303F01F0301226C
:1029C80002FA03F30B4204D02369934201D0012099
:1029D80003E23948036823F0F8036169F82292FAA0
:1029E800A2F2B2FA82F201FA02F2134303602368F8
:1029F80013F0080F00F08C80A369002B60D0012130
:102A080091FAA1F2B2FA82F22C4B13449B0019609E
:102A1800FDF718FC0546022393FAA3F293FAA3F2F2
:102A280093FAA3F2244A516A93FAA3F3B3FA83F30D
:102A380003F01F03012202FA03F30B4268D1FDF7EA
:102A480001FC401B0228E6D90320C6E11A480368A6
:102A580023F0F8036169F82292FAA2F2B2FA82F23C
:102A680001FA02F213430360C1E7012393FAA3F3C7
:102A7800B3FA83F303F1845303F584139B00002214
:102A88001A60FDF7DFFB0546022393FAA3F30A4B0E
:102A98001968022393FAA3F3B3FA83F303F01F032D
:102AA800012202FA03F30B42A1D0FDF7CBFB401B36
:102AB8000228E9D9032090E10010024020819010FB
:102AC800012292FAA2F2B2FA82F2C04B13449B009E
:102AD80000221A60FDF7B6FB0546022393FAA3F21B
:102AE80093FAA3F293FAA3F2B94A516A93FAA3F3B9
:102AF800B3FA83F303F01F03012202FA03F30B4234
:102B080006D0FDF79FFB401B0228E6D9032064E1AD
:102B1800236813F0040F00F0B380AD4BDB6913F0AA
:102B2800805F20D1AA4BDA6942F08052DA61DB6912
:102B380003F080530193019B0125A64B1B6813F4F6
:102B4800807F12D0E368012B23D073BB03F180434D
:102B580003F504331A6A22F001021A621A6A22F093
:102B680004021A621AE00025E7E79A4A136843F458
:102B780080731360FDF766FB0646964B1B6813F4DB
:102B8800807FDFD1FDF75EFB801B6428F5D9032029
:102B980023E18F4A136A43F001031362E368002BB1
:102BA80041D0FDF74FFB06462BE0052B09D0884B9B
:102BB8001A6A22F001021A621A6A22F004021A62E0
:102BC800ECE7834B1A6A42F004021A621A6A42F06E
:102BD80001021A62E2E77E4B196A022393FAA3F311
:102BE800B3FA83F303F01F03012202FA03F3194235
:102BF80045D1FDF727FB801B41F28833984200F24C
:102C0800E180022393FAA3F293FAA3F3B3FA83F3CE
:102C18005B0943F00203022BDDD0022393FAA3F3EE
:102C28006B4B596AD9E7FDF70DFB064615E0684B73
:102C3800196A022393FAA3F3B3FA83F303F01F0389
:102C4800012202FA03F3194219D0FDF7FBFA801B9F
:102C580041F28833984200F2B780022393FAA3F234
:102C680093FAA3F3B3FA83F35B0943F00203022B4D
:102C7800DDD0022393FAA3F3554B596AD9E7B5BBC4
:102C8800E369002B00F0A880514A526802F00C0258
:102C9800082A00F0A480022B2FD04FF0807393FAFB
:102CA800A3F3B3FA83F303F1845303F584139B006E
:102CB80000221A60FDF7C6FA04464FF0007393FA33
:102CC800A3F3434B19684FF0007393FAA3F3B3FAD5
:102CD80083F303F01F03012202FA03F319426BD0B6
:102CE800FDF7B0FA001B0228E7D9032075E0384A3F
:102CF800D36923F08053D361C2E74FF0807393FA0E
:102D0800A3F3B3FA83F303F1845303F584139B000D
:102D180000221A60FDF796FA05464FF0007393FA01
:102D2800A3F32B4B19684FF0007393FAA3F3B3FA8C
:102D380083F303F01F03012202FA03F3194206D0BA
:102D4800FDF780FA401B0228E7D9032045E0204917
:102D58004B6823F47413626A206A024313434B607E
:102D68004FF0807393FAA3F3B3FA83F303F1845318
:102D780003F584139B0001221A60FDF763FA0446E9
:102D88004FF0007393FAA3F3114B19684FF00073D7
:102D980093FAA3F3B3FA83F303F01F03012202FAB1
:102DA80003F3194206D1FDF74DFA001B0228E7D9B3
:102DB800032012E0002010E000200EE00120704700
:102DC80001200AE0032008E0032006E0208190109B
:102DD8000010024000700040002002B070BD0120C9
:102DE800FBE700BF10B4174B5C6804F00C03082B1A
:102DF80026D104F470124FF4701393FAA3F3B3FAC4
:102E080083F322FA03F31049C85C0E4BDB6A03F024
:102E18000F030F2292FAA2F2B2FA82F2D3400B44C5
:102E28001A7C14F4803F05D1084B03FB00F05DF8D1
:102E3800044B7047064BB3FBF2F300FB03F0F6E7D5
:102E48000348F4E700100240845E000800093D00D2
:102E580000127A00002800F0C08070B50446614B6B
:102E68001B6803F007038B420CD25E4A136823F0F9
:102E780007030B431360136803F007038B4201D069
:102E8800012070BD236813F0020F06D0564A53681C
:102E980023F0F003A068034353600D46236813F042
:102EA800010F5AD06368012B2DD0022B40D002228B
:102EB80092FAA2F24C4A1068022292FAA2F2B2FAEC
:102EC80082F202F01F02012101FA02F2104200F020
:102ED800868045494A6822F0030213434B60FDF798
:102EE800B1F90646404B5B6803F00C036268B3EB2C
:102EF800820F32D0FDF7A6F9801B41F28833984241
:102F0800F0D90320BDE74FF4003292FAA2F2364A14
:102F180010684FF4003292FAA2F2B2FA82F202F08A
:102F28001F02012101FA02F20242D2D10120A8E7D0
:102F38004FF0007292FAA2F22B4A10684FF000721A
:102F480092FAA2F2B2FA82F202F01F02012101FA09
:102F580002F21042BDD1012093E7224B1B6803F017
:102F68000703AB420CD91F4A136823F007032B430E
:102F78001360136803F00703AB4201D0012080E718
:102F8800236813F0040F06D0174A536823F4E0634C
:102F9800E1680B435360236813F0080F07D0124A07
:102FA800536823F46053216943EAC1035360FFF770
:102FB80019FF0D4B5B6803F0F003F02292FAA2F2BE
:102FC800B2FA82F2D340094AD35CD840084B186061
:102FD8000020FDF7F5F8002053E701207047012095
:102FE8004FE700BF0020024000100240A45E000826
:102FF80024010020014B1868704700BF24010020FD
:1030080008B5FFF7F7FF074B5B6803F4E0634FF47D
:10301800E06292FAA2F2B2FA82F2D340024AD35C98
:10302800D84008BD00100240B45E000808B5FFF79C
:10303800E1FF074B5B6803F460534FF4605292FA68
:10304800A2F2B2FA82F2D340024AD35CD84008BD59
:1030580000100240B45E0008F0B583B0044603686F
:1030680013F4803F48D0934BDB6913F0805F40F046
:10307800D580904BDA6942F08052DA61DB6903F05F
:1030880080530193019B01258B4B1B6813F4807FB0
:1030980000F0C680874B1B6A13F4407322D0626825
:1030A80002F440729A421DD08248016A21F44076A7
:1030B8004FF4803393FAA3F2B2FA82F27F4F3A4484
:1030C80092004FF0010CC2F800C093FAA3F3B3FAD0
:1030D80083F33B449B0000221A60066211F0010F43
:1030E80040F0B380734A136A23F4407361680B435A
:1030F8001362002D40F0D580236813F0010F06D02D
:103108006C4A136B23F00303A1680B431363236812
:1031180013F0020F06D0674A136B23F44033E168BB
:103128000B431363236813F0040F06D0614A136B33
:1031380023F4402321690B431363236813F0200F02
:1031480006D05C4A136B23F01003E1690B43136349
:10315800236813F4003F06D0564A536823F48003CB
:10316800A16B0B435360236813F0400F06D0514AFC
:10317800136B23F02003216A0B431363236813F0B6
:10318800080F06D04B4A136B23F4401361690B43B5
:103198001363236813F0100F06D0464A136B23F409
:1031A8004003A1690B431363236813F4007F06D01F
:1031B800404A536823F40003E16A0B4353602368D1
:1031C80013F0800F06D03B4AD36A23F4F873616A80
:1031D8000B43D362236813F4807F06D0354AD36A41
:1031E80023F47853A16A0B43D362236813F4805FF6
:1031F80006D0304A136B23F48073216B0B4313639F
:10320800236813F4005F53D02A4A136B23F4007326
:10321800616B0B431363002003B0F0BD002533E757
:10322800254A136843F480731360FDF70BF80646CC
:10323800214B1B6813F4807F7FF42CAFFDF702F855
:10324800801B6428F4D90320E6E7FCF7FBFF064659
:1032580015E0184B196A022393FAA3F3B3FA83F320
:1032680003F01F03012202FA03F30B427FF43AAF83
:10327800FCF7E8FF801B41F28833984216D80223F6
:1032880093FAA3F293FAA3F3B3FA83F35B0943F037
:103298000203022BDDD0022393FAA3F3054B596AEC
:1032A800D9E7D36923F08053D36125E70320B3E737
:1032B8000020B1E70010024000700040008190102B
:1032C800F8B505460F4616461C4639E02CB1FCF702
:1032D800B9FF069BC01AA04232D32A68536823F06C
:1032E800E00353606B68B3F5827F0BD0AB6AB3F52C
:1032F800005F14D0012385F85D30002385F85C3029
:10330800032025E0AB68B3F5004F02D0B3F5806F1A
:10331800ECD12A68136823F040031360E6E72A68B3
:10332800136823F4005313602A68136843F40053A6
:103338001360DFE70123B34209D0B4F1FF3FC5D1E1
:103348002B689B6837EA0303F4D00023F3E70020D7
:10335800F8BDF0B583B007460C4615461E4602E098
:10336800B6F1FF3F10D13A6893682340AB423FD093
:10337800B4F5C06FF4D1002DF2D1137BDBB28DF818
:1033880007309DF80730EBE72EB1FCF75BFF089B91
:10339800C01AB042E7D33A68536823F0E003536099
:1033A8007B68B3F5827F0BD0BB6AB3F5005F14D09E
:1033B800012387F85D30002387F85C30032018E08C
:1033C800BB68B3F5004F02D0B3F5806FECD13A6813
:1033D800136823F040031360E6E73A68136823F4A0
:1033E800005313603A68136843F400531360DFE72F
:1033F800002003B0F0BD70B582B004460D461646F5
:1034080000920B4600224FF4C051FFF7A2FFB8B953
:1034180000962B46002280212046FFF751FFB8B9BD
:1034280000962B4600224FF4C0612046FFF791FF1B
:10343800034650B1236E43F020032366032304E0C0
:10344800236E43F0200323660323184602B070BDA1
:10345800236E43F0200323660323F6E770B582B09A
:1034680004460D4616464368B3F5827F0FD0009692
:103478002B46002280212046FFF722FF034698B9F9
:103488006268B2F5827F15D0184602B070BD8368B5
:10349800B3F5004F02D0B3F5806FE8D12268136806
:1034A80023F040031360E2E7236E43F02003236612
:1034B8000323E9E7A268B2F5004F02D0B2F5806FA6
:1034C800E2D100962B4600224FF4C0612046FFF758
:1034D80040FF03460028D7D0236E43F0200323661D
:1034E8000323D1E7002858D010B50446002383628F
:1034F80090F85D30002B45D0022384F85D302268B7
:10350800136823F040031360E368B3F5E06F3ED916
:103518000022B3F5706F04D0B3F5E06F01D000213D
:10352800A162216B21B9B3F5E06F33D9022323637C
:103538006368A1680B4321690B4361690B43A16967
:1035480001F400710B43E1690B43216A0B43A06A44
:10355800216803430B60638B03F00403616A0B4328
:10356800616B0B43E1680B43216813434B6022688E
:10357800D36923F40063D36100202066012384F813
:103588005D3010BD80F85C3002F086F8B4E74FF487
:103598008052BEE701232363CAE701207047000079
:1035A800034690F85C00012847D0012083F85C00AE
:1035B800002939D0002A39D093F85D00C0B201281B
:1035C80001D0022033E0032083F85D000020186654
:1035D80099639A87DA871864A3F84400A3F8460029
:1035E800D864DA68B2F5E06F15D9154A1A659A6891
:1035F800B2F5004F12D019684A6842F0A0024A603A
:103608001A68116811F0400F15D1116841F0400196
:10361800116000200BE00B4A1A65E8E719680A6890
:1036280042F480420A60E6E7012000E0012000221F
:1036380083F85C2070470020F9E70220704700BF3C
:10364800A13800087D38000830B490F85C40012C9F
:103658006CD0012480F85C4090F85D40E4B2456885
:10366800012C10D0B5F5827F06D00223002280F805
:103678005C20184630BC70478568002D4CD1042C5E
:1036880001D00223F2E7002948D0002A48D0002BB5
:1036980048D090F85D40E4B2042C02D0052480F8AC
:1036A8005D400024046681638387C3870264A0F8B1
:1036B8004430A0F84630C368B3F5E06F21D91C4BFD
:1036C800C3641C4B0365C368B3F5E06F04D8B0F856
:1036D80046309BB2012B19D90268536823F48053F2
:1036E80053600268536843F0E003536003681A6844
:1036F80012F0400F18D11A6842F040021A600023F5
:10370800B4E70D4BC3640D4B0365DCE702685368EF
:1037180043F480535360E4E70223A7E70123A5E7B6
:103728000123A3E70123A1E700239FE70223A0E7E2
:10373800BF3A0008873A0008113A0008BB39000868
:1037480010B50446806818B96368B3F5827F10D055
:1037580094F85C0001285AD0012384F85C3094F86E
:103768005D00C0B298420DD00220002384F85C307E
:1037780010BD13462046042284F85D200A46FFF750
:1037880063FFF5E700293CD0002A3CD0042384F8E5
:103798005D30002323662164A4F84420A4F8462061
:1037A800A363A387E3872365E368B3F5E06F1AD9BA
:1037B8002268536823F480535360164BE364A3686C
:1037C800B3F5004F17D02268536843F06003536085
:1037D80023681A6812F0400F17D11A6842F04002A5
:1037E8001A600020C1E72268536843F4805353608D
:1037F800094BE364E3E72268136823F4804313600A
:10380800E1E70120B1E70120AFE70020ADE70220A2
:10381800AEE700BF3139000807390008704710B516
:1038280082B00446FCF70EFD2268536823F0A0031B
:103838005360024664212046FFF7DDFD18B1236E70
:1038480043F020032366A36833B901932368DA6839
:1038580001929B680193019B012384F85D30236EDC
:1038680023B9204601F046FD02B010BD204601F004
:1038780061FDF9E708B5836B5A1C826302681B78FF
:103888001373C38F013B9BB2C387C38F9BB203B132
:1038980008BDFFF7C4FFFBE708B5826B0368128811
:1038A800DA60836B02338363C38F013B9BB2C387A8
:1038B800C38F9BB203B108BDFFF7B1FFFBE710B59B
:1038C80004460268536823F060035360FCF7BAFCAF
:1038D800024664212046FFF7C1FD18B1236E43F06C
:1038E80020032366012384F85D30236E1BB1204634
:1038F80001F020FD10BD204601F00CFDFAE708B5E7
:103908000268036C591C0164127B1A70B0F84630C7
:10391800013B9BB2A0F84630B0F846309BB203B1E9
:1039280008BDFFF7CCFFFBE708B50368DA68036C4E
:103938001A80036C02330364B0F84630013B9BB233
:10394800A0F84630B0F846309BB203B108BDFFF787
:10395800B6FFFBE710B50446FCF774FC2268536811
:1039680023F020035360024664212046FFF743FDFD
:1039780018B1236E43F020032366236E93B994F89D
:103988005D30DBB2042B06D0012384F85D3020467D
:10399800FFF744FF10BD012384F85D30204601F095
:1039A800B9FCF7E7012384F85D30204601F0C2FC3A
:1039B800F0E708B5C38F9BB2012B17D9826B036858
:1039C8001288DA60836B02338363C38F023B9BB236
:1039D800C387C38F9BB243B90268536823F080033F
:1039E8005360B0F846309BB25BB108BD836B5A1C7C
:1039F800826302681B781373C38F013B9BB2C38732
:103A0800E7E7FFF7A7FFF0E708B5B0F846309BB245
:103A1800012B24D90368DA68036C1A80036C02331B
:103A28000364B0F84630023B9BB2A0F84630B0F8C9
:103A380046309BB2012B0CD0B0F846309BB23BB954
:103A48000268536823F060035360C38F9BB29BB135
:103A580008BD0268536843F480535360ECE702687A
:103A6800036C591C0164127B1A70B0F84630013B94
:103A78009BB2A0F84630DFE7FFF76CFFE8E708B530
:103A8800826B03681288DA60836B02338363C38FA7
:103A9800013B9BB2C387C38F9BB243B9026853688B
:103AA80023F080035360B0F846309BB203B108BDE1
:103AB800FFF750FFFBE708B50368DA68036C1A8064
:103AC800036C02330364B0F84630013B9BB2A0F8A4
:103AD8004630B0F846309BB23BB90268536823F0D1
:103AE80040035360C38F9BB203B108BDFFF732FF99
:103AF800FBE7000010B584B004460268506893687C
:103B080003F0410101290AD013F0020F0ED010F082
:103B1800800F0BD0236D2046984704B010BD10F0DD
:103B2800400FF1D0E36C20469847F6E713F4B07FD6
:103B3800F3D010F0200FF0D013F0400F0FD094F80E
:103B48005D10C9B203294AD0216E41F004012166F3
:103B580000210091D168009191680091009913F0BB
:103B6800200F0CD0216E41F0010121660021029145
:103B780091680291116821F040011160029A13F4D2
:103B8800807F09D0236E43F0080323660023039344
:103B980023689B680393039B236E002BBDD0226888
:103BA800536823F0E0035360012384F85D3010F07C
:103BB800030F1CD02268536823F003035360A36DDE
:103BC80023B10D4A5A63A06DFCF79FFE636D002B6D
:103BD800A3D0094A5A63606DFCF797FE9DE700235E
:103BE8000193D368019393680193019B95E720465D
:103BF80001F0A0FB91E700BF053C000808B5406A4A
:103C08000023A0F84630C38701F094FB08BD026882
:103C1800136823F4907313600268936823F0010318
:103C28009360202380F86A30704790F86930DBB2DF
:103C3800202B18D1C9B1D2B190F86830012B18D017
:103C4800C164A0F85020A0F852200023C3662122A6
:103C580080F8692080F8683001680A6842F08002BC
:103C68000A601846704702207047012070470120FB
:103C780070470220704790F86A30DBB2202B3BD1A6
:103C880000293BD0002A3BD090F86830012B39D06E
:103C9800012380F868304165A0F85820A0F85A2020
:103CA8008368B3F5805F06D05BB9036903BBFF2364
:103CB800A0F85C3005E00369B3B940F2FF13A0F83F
:103CC8005C300023C366222280F86A2080F86830BE
:103CD80001688A6842F001028A6001680A6842F451
:103CE80090720A6018467047FF23A0F85C30E8E736
:103CF8007F23A0F85C30E4E702207047012070477A
:103D0800012070470220704708B5406A0023A0F8D8
:103D18005A30A0F8523001F0C1FA08BD10B5044677
:103D280083680269134342691343C2691A430168ED
:103D38000B6823F4164323F00C0313430B6002684B
:103D4800536823F44053C1680B4353608369026A84
:103D58001A4301688B6823F4306313438B6003684C
:103D6800914A93421FD0914A93422FD0904A93424E
:103D780046D0904A93425DD08F4A934274D0102225
:103D8800E169B1F5004F00F08B80082A00F20A8142
:103D9800DFE812F0CE00DA00E6000801F2000801C0
:103DA80008010801FE0002F55842126B02F00302F6
:103DB800032A09D8DFE802F0020406720122DFE7CD
:103DC8000422DDE70822DBE71022D9E702F5E63214
:103DD800126B02F44032B2F5803F0BD007D9B2F52E
:103DE800003F09D0B2F5403F08D10222C8E72AB9FE
:103DF8000022C5E70422C3E70822C1E71022BFE773
:103E080002F5E432126B02F44022B2F5802F0BD097
:103E180007D9B2F5002F09D0B2F5402F08D10222F8
:103E2800AEE72AB90022ABE70422A9E70822A7E7F0
:103E38001022A5E702F5E232126B02F44012B2F545
:103E4800801F0BD007D9B2F5001F09D0B2F5401F6B
:103E580008D1022294E72AB9002291E704228FE7C9
:103E680008228DE710228BE702F5E032126B02F48C
:103E78004002B2F5800F0BD007D9B2F5000F09D078
:103E8800B2F5400F08D102227AE72AB9002277E773
:103E9800042275E7082273E7102271E702226FE710
:103EA800082A42D8DFE802F0051722412D41414196
:103EB8003800FFF7A5F86268530803EB4003B3FB2B
:103EC800F2F39BB2002023F00F02C3F34203134323
:103ED8002268D36010BDFFF7A9F86268530803EBA6
:103EE8004003B3FBF2F39BB20020ECE7626853088F
:103EF80003F5740303F51053B3FBF2F39BB20020F0
:103F0800E1E7FEF76FFF6268530803EB4003B3FB7A
:103F1800F2F39BB20020D6E76268530803F58033BA
:103F2800B3FBF2F39BB20020CDE701200023CAE7E0
:103F3800FFF766F8636800EB5300B0FBF3F0236803
:103F480080B2D8600020C5E7FFF770F8636800EB1F
:103F58005300B0FBF3F0236880B2D8600020B9E7C3
:103F680061684A0802F5F40202F59052B2FBF1F2D8
:103F780092B2DA600020ADE7FEF734FF636800EB29
:103F88005300B0FBF3F0236880B2D8600020A1E7AB
:103F980061684A0802F50042B2FBF1F292B2DA60B7
:103FA800002097E7012095E70038014000440040D1
:103FB80000480040004C004000500040436A13F0A5
:103FC800010F06D00268536823F40033816A0B435B
:103FD8005360436A13F0020F06D00268536823F453
:103FE8008033C16A0B435360436A13F0040F06D051
:103FF8000268536823F48023016B0B435360436AC0
:1040080013F0080F06D00268536823F40043416B8D
:104018000B435360436A13F0100F06D0026893688D
:1040280023F48053816B0B439360436A13F0200F92
:1040380006D00268936823F40053C16B0B43936066
:10404800436A13F0400F0AD00268536823F48013C0
:10405800016C0B435360036CB3F5801F0BD0436AAC
:1040680013F0800F06D00268536823F40023816C94
:104078000B43536070470268536823F4C003416CD4
:104088000B435360EBE72DE9F04105460F46164612
:104098009846069C2B68DB6937EA03030CBF0123AB
:1040A8000023B3421DD1B4F1FF3FF3D02CB1FCF78C
:1040B800C9F8A0EB0800A042ECD92A68136823F4D9
:1040C800D07313602A68936823F001039360202358
:1040D80085F8693085F86A30002385F86830032050
:1040E80000E00020BDE8F08130B583B0044600232D
:1040F800C366FCF7A7F8054623681B6813F0080F8A
:104108000ED123681B6813F0040F17D1202384F8FD
:10411800693084F86A30002084F8680003B030BD44
:104128006FF07E430093034600224FF400112046AF
:10413800FFF7A9FF0028E4D00320EFE76FF07E43E4
:1041480000932B4600224FF480012046FFF79BFF87
:104158000028DBD00320E1E778B310B5044690F8D7
:1041680069300BB3242384F869302268136823F07C
:10417800010313602046FFF7D1FD012813D0636ABD
:10418800BBB92268536823F490435360226893684C
:1041980023F02A0393602268136843F00103136035
:1041A8002046FFF7A1FF10BD80F8683001F09CFBA6
:1041B800D8E72046FFF702FFE3E70120704790F8B1
:1041C8006930DBB2212B2ED1B0F852309BB28BB1C3
:1041D8008368B3F5805F19D0C36C5A1CC264026847
:1041E8001B781385B0F85230013B9BB2A0F85230CF
:1041F800002070470268136823F080031360026888
:10420800136843F040031360002070470369002BD4
:10421800E2D1C36C02681B88C3F308031385C36C1F
:104228000233C364DEE70220704708B501680B68F3
:1042380023F040030B60202380F8693001F012F866
:10424800002008BDB0F85C2090F86A30DBB2222B61
:1042580031D110B503689B8C9BB28168B1F5805F42
:104268000ED0D2B2416D4C1C44651A400A70B0F8A9
:104278005A30013B9BB2A0F85A305BB1002010BD08
:1042880001690029EDD1416D1A400A80436D02335E
:104298004365ECE70268136823F4907313600268BF
:1042A800936823F001039360202380F86A3000F0BC
:1042B800E7FF0020E3E70268936943F0080393618E
:1042C8000220704738B504460268D369116813F0B4
:1042D8000F0505D113F0200F02D011F0200F60D187
:1042E8009068002D72D010F0010502D111F4907F72
:1042F8006CD013F0010F07D011F4807F04D0012097
:104308001062E26E0243E26613F0020F07D035B185
:10431800226802201062E26E42F00402E26613F0A4
:10432800040F07D035B1226804201062E26E42F013
:104338000202E26613F0080F09D011F0200F00D135
:104348002DB1226808201062E26E0243E266E26E36
:10435800002A4DD013F0200F02D011F0200F23D1E6
:10436800E36E13F0080F04D123689B6813F0400F25
:1043780026D02046FFF74BFC23689A6812F0400FBE
:104388001AD09A6822F040029A60636E83B1234A79
:104398005A63606EFCF7B9FA50B3606E436B984786
:1043A80026E0FFF74FFF23E02046FFF74BFFD7E754
:1043B800204600F073FF1BE0204600F06FFF17E077
:1043C800204600F06BFF0023E36611E013F4801F22
:1043D80002D010F4800F0CD113F0800F02D011F02E
:1043E800800F12D113F0400F02D011F0400F10D1FE
:1043F80038BD4FF480131362202384F8693084F8A1
:104408006A30204600F00CF8F2E72046FFF7D7FEA6
:10441800EEE72046FFF709FFEAE700BF113D000875
:104428007047D0F818321BB10020C3F81402704747
:104438000220704710B5D0F81842D0F81C325BB192
:1044480094F80002FF2807D09B6894F801222146BF
:104458009847FF2384F80032002010BD43230380CF
:104468000048704708000020432303800048704735
:104478004C00002043230380004870479000002030
:104488000A23038000487047D400002038B504464A
:10449800D0F8185201F0F2FBC5F80C02D4F8183223
:1044A8004BB1D4F81C32DB6805F50371D5F804026A
:1044B8009847002038BD0220FCE7000070B505468B
:1044C8000C46D0F818620B7813F0600225D0202A29
:1044D80007D1CA883AB9D0F81C329B6800224878BC
:1044E8009847002070BD13F0800F0BD0D0F81C3215
:1044F8009B68314660789847E2883146284600F044
:1045080059FCEEE74B7886F80032CB8886F8013202
:10451800CA88314600F063FCE3E74B780A2BE0D108
:104528000122024900F046FCDBE700BFA40100209D
:1045380010B50446812101F05AFB0121204601F003
:1045480056FB8221204601F052FBD4F8183253B1B1
:10455800D4F81C325B689847D4F8180201F098FB2D
:104568000023C4F81832002010BD38B50446037C77
:1045780073BB4FF400730222812101F02DFB4FF42D
:10458800007302220121204601F026FB08230322A2
:104598008221204601F020FB4FF4077001F074FBE4
:1045A8000546C4F8180248B3D4F81C321B6898476B
:1045B8000023C5F81432C5F81832237CA3B1402370
:1045C800D5F804220121204601F050FB002038BD17
:1045D80040230222812101F0FFFA40230222012117
:1045E800204601F0F9FAD1E74FF40073D5F8042218
:1045F8000121204601F03AFB0020E8E70120E6E728
:1046080019B1C0F81C120020704702207047D0F87A
:104618001832C3F80812C3F8102200207047D0F8E7
:104628001832C3F8041200207047D0F818229AB143
:1046380008B5037C3BB14023D2F80422012101F0E4
:1046480015FB002008BD4FF40073D2F804220121A5
:1046580001F00CFB0020F5E70220704798B108B57F
:104668000346D0F8140210B10020C3F8140209B1AF
:10467800C3F810121846012380F8FC31027001F0CB
:1046880061FA002008BD0220704719B1C0F8141261
:10469800002070470220704708B501F095FA002005
:1046A80008BD08B5D0F8143233B11B68984708B96B
:1046B800002008BD0220FCE70220FAE708B5D0F880
:1046C80014325B689847002008BD38B5044600F5E9
:1046D8000275284600F00CF90123C4F8F431B4F847
:1046E8000E32C4F8F83194F8081201F01F03012BB8
:1046F8000ED03BB1022B10D001F08001204601F012
:104708007EFA03E02946204600F06BFA002038BD07
:104718002946204600F089FAF8E72946204600F0A5
:10472800A0FAF3E710B5044621BB1346D0F8F421EC
:10473800032A01D0002010BDD0F80C11D0F81021A8
:1047480091420CD8D0F814321B6923B190F8FC219F
:10475800032A00D19847204600F058FBEAE7891A57
:10476800C0F80C118A4228BF0A4692B2194600F0D6
:1047780045FBDFE70A46D0F814329B69002BD9D0F5
:1047880090F8FC110329D5D111469847D2E710B506
:104798000446002946D11346D0F8F421022A05D050
:1047A80094F80032012B39D0002010BDC169026A8B
:1047B800914219D88169B1FBF2F302FB13132BB9AB
:1047C8008A4203D8D0F8F83199421AD3D4F814326F
:1047D800DB682BB194F8FC21032A01D120469847C5
:1047E800204600F01EFBDBE78A1AC26192B2194626
:1047F80000F0EDFA00231A461946204601F036FA71
:10480800CEE70022114600F0E2FA0021C4F8F811C0
:104818000B460A46204601F029FAC1E7002384F82E
:104828000032C1E70A46D0F814325B69002BBBD0CE
:1048380090F8FC110329B7D111469847B4E738B569
:10484800044640230022114601F0C6F94025C4F869
:1048580010512B4600228021204601F0BDF9256227
:10486800012384F8FC31D4F818322BB1D4F814326F
:104878005B68217920469847002038BD01740020E4
:10488800704790F8FC3180F8FD31042380F8FC3142
:104898000020704790F8FD3180F8FC310020704707
:1048A80008B590F8FC31032B01D0002008BDD0F8E2
:1048B8001432DB69002BF8D09847F6E7002302E0B2
:1048C8000133DBB201300278002AF9D1184670476B
:1048D8004B88012B0BD110B50446C0F80432D0F830
:1048E80014329B689847204600F090FA10BD704734
:1048F8000B7803704B7843708B78CA7803EB0223EC
:1049080043800B794A7903EB022383808B79CA7938
:1049180003EB0223C380704710B50446802101F0E1
:104928006EF90021204601F06AF910BD30B583B058
:1049380004460D464A88130A013B062B00F2818083
:10494800DFE803F00413277F7F637000D0F810328C
:104958001B680DF10601007C9847BDF8062012B1CE
:10496800EB88002B71D103B030BD037C43B9D0F87C
:1049780014329B6A0DF10600984702234370ECE756
:10498800D0F81432DB6A0DF1060098470223437011
:10499800E3E7D2B2052A34D8DFE802F0030B131B91
:1049A800232BD0F810325B680DF10601007C984784
:1049B800D3E7D0F810329B680DF10601007C9847C8
:1049C800CBE7D0F81032DB680DF10601007C984780
:1049D800C3E7D0F810321B690DF10601007C984737
:1049E800BBE7D0F810325B690DF10601007C9847EF
:1049F800B3E7D0F810329B690DF10601007C9847A7
:104A0800ABE72946FFF788FFADE7037C33B9D0F859
:104A180014325B6B0DF1060098479EE72946FFF7B5
:104A28007BFFA0E7037C43B9D0F814321B6B0DF170
:104A380006009847072343708FE72946FFF76CFF66
:104A480091E72946FFF768FF8DE79A4228BF1A4683
:104A5800ADF806200146204600F0ACF983E738B5EA
:104A680004468B88E3B9CB88D3B98D7805F07F05E8
:104A780090F8FC31032B0CD080F8FE51294601F048
:104A8800E5F8204600F0C2F935B1022384F8FC317C
:104A980009E0FFF741FF06E0012384F8FC3102E05A
:104AA8002046FFF739FF38BD38B504460D468978EA
:104AB800254B1970012909D890F8FC31022B09D02F
:104AC800032B1CD02946FFF727FF02E02946FFF7F2
:104AD80023FF38BD81B14160032380F8FC31FFF723
:104AE800E0FD022803D0204600F090F9F1E72946BE
:104AF8002046FFF711FFECE700F088F9E9E789B1F4
:104B0800436899421DD0D9B2FFF7D8FD0E4B1978EA
:104B180061602046FFF7C5FD02280DD0204600F051
:104B280075F9D6E7022380F8FC314160FFF7C6FD2E
:104B3800204600F06BF9CCE729462046FFF7ECFE4B
:104B4800C7E700F063F9C4E7A501002008B5CB88E2
:104B5800012B08D190F8FC31022B07D0032B0DD084
:104B6800FFF7DAFE01E0FFF7D7FE08BD0146002394
:104B780041F8083F012200F01DF9F6E70122011D66
:104B880000F018F9F1E708B590F8FC31023B012B69
:104B98000CD80123C360D0F804320BB10323C360DF
:104BA800022200F10C0100F005F908BDFFF7B4FE80
:104BB800FBE710B5044690F8FC31023B012B0DD8F9
:104BC8004B88012B09D10023C0F80432D0F81432E5
:104BD8009B689847204600F019F910BDFFF79CFE26
:104BE800FBE708B54B78092B1CD8DFE803F012184F
:104BF8001B151B09051B0F0CFFF798FE002008BDAD
:104C0800FFF72DFFFAE7FFF74FFFF7E7FFF79EFFE4
:104C1800F4E7FFF7B8FFF1E7FFF75AFEEEE7FFF713
:104C2800C8FFEBE7FFF778FEE8E738B504460D461E
:104C380090F8FC31032B11D10B79012B0BD8D0F84C
:104C480014329B689847EB880BB1002038BD20468A
:104C580000F0DCF8F9E7FFF75FFEF6E7FFF75CFE28
:104C6800F3E738B505460C468A880B7803F06003ED
:104C7800202B05D1D0F814329B689847002038BD06
:104C8800D1B26378012B25D0002B47D0032BF5D167
:104C980090F8FC31022B05D0032B0AD02146FFF7F0
:104CA8003BFEEBE70029E9D08029E7D000F0A7FF19
:104CB800E4E7638823B919B1802901D000F09FFF88
:104CC800D5F814329B68214628469847284600F0B4
:104CD8009DF8D3E790F8FC31022B05D0032B0AD0BE
:104CE8002146FFF719FEC9E70029C7D08029C5D09A
:104CF80000F085FFC2E76388002BBFD111F07F0F5A
:104D080003D1284600F082F8B8E700F080FFD5F814
:104D180014329B68214628469847F2E790F8FC3100
:104D2800022B05D0032B09D02146FFF7F5FDA5E797
:104D380011F07F0FA2D000F062FF9FE712F0800F02
:104D480011D101F07F04103400EB04140434284618
:104D580000F065FF70B10123236002222146284636
:104D680000F028F88AE701F07F04013400EB04140E
:104D78000434ECE700232360EFE7D0B170B50D46AB
:104D880016460446FFF79AFD0130400080B2308095
:104D9800287003236B70022307E001345A1CD2B237
:104DA800E9540233DBB20021A95421780029F4D157
:104DB80070BD704710B513460222C0F8F421836114
:104DC800C3610A46002100F049FF002010BD08B564
:104DD80013460A46002100F041FF002008BD10B527
:104DE80013460322C0F8F421C0F80831C0F80C318A
:104DF8000A46002100F03AFF002010BD08B513460E
:104E08000A46002100F032FF002008BD08B504233F
:104E1800C0F8F43100231A46194600F01FFF00209D
:104E280008BD08B50523C0F8F43100231A46194611
:104E380000F01CFF002008BD08B50B480B4B0360B1
:104E48001023436000238360C360036143610376DA
:104E580043768376C37603774377FBF70DFA00B979
:104E680008BD00F077FAFBE7D80300200064004093
:104E780000B589B000230393049305930693079321
:104E88000268234B9A4202D009B05DF804FB03F58F
:104E9800D633DA6942F00072DA61DA6902F0007238
:104EA8000192019A5A6942F480125A615B6903F4CB
:104EB80080130293029B0323039302220492069316
:104EC8000723079303A91348FBF744FD0022114663
:104ED8001320FBF7C3FB1320FBF7F4FB002211465A
:104EE8001420FBF7BBFB1420FBF7ECFB0022114658
:104EF8001520FBF7B3FB1520FBF7E4FB0022114656
:104F08001620FBF7ABFB1620FBF7DCFBBCE700BF6A
:104F180000640040000C004810B50A4B0A4A1A60A9
:104F280001241C7198600022DA6059715A619A61F3
:104F38001C621846FBF74EFC00B910BD00F00AFAD7
:104F4800FBE700BF00040020003002400268094B64
:104F58009A4200D0704782B0A3F500535A6942F0D4
:104F680040025A615B6903F040030193019B02B060
:104F7800704700BF00300240F0B58DB000240794A0
:104F8800089409940A940B943A4B5A6942F4002203
:104F98005A615A6902F400220192019A5A6942F44C
:104FA80080025A615A6902F480020292029A5A698E
:104FB80042F400325A615A6902F400320392039AA9
:104FC8005A6942F400125A615A6902F400120492B2
:104FD800049A5A6942F480225A615A6902F480227A
:104FE8000592059A5A6942F480125A615B6903F482
:104FF80080130693069B204F22464FF47F41384684
:10500800FBF779FD1D4D22464FF480712846FBF7CA
:1050180072FD012607961A4B0893099407A94FF0C9
:105028009040FBF797FC4FF47F4307930896099449
:105038000A9407A93846FBF78DFC4FF48073079351
:10504800089609940A9407A92846FBF783FC4FF4AD
:10505800007307930894099407A92846FBF77AFC7C
:10506800224621460620FBF7F9FA0620FBF72AFB21
:105078000DB0F0BD0010024000100048000C0048C0
:105088000000111008B54FF4FA70FBF7E1F80022A0
:105098004FF47F410348FBF72EFD4FF4FA70FBF7FE
:1050A800D7F808BD0010004808B51348134B036033
:1050B800134B436040F20F3383600223C360002325
:1050C8000361FF224261C3610362FBF7D8FD50B957
:1050D80000210948FCF78AFA40B900210648FCF784
:1050E800B3FA30B908BD00F035F9F1E700F032F94C
:1050F800F3E700F02FF9F5E72404002000580040FA
:105108002A09C40010B588B00023039304930593BB
:105118000693079302681C4B9A4201D008B010BD51
:105128001A4C636943F400336361636903F4003321
:105138000193019B4FF4C06303931223049301234B
:105148000593032306930423079303A94FF0904084
:10515800FBF700FCE36943F48003E361E36903F4CC
:1051680080030293029B002211462120FBF776FA66
:105178002120FBF7A7FA002211462220FBF76EFA3E
:105188002220FBF79FFAC9E70058004000100240B0
:1051980030B400240AE050F82420DD00EA4003EB94
:1051A80084054A550133032BF5DD0134022C01DC5B
:1051B8000023F8E730BC704770B400250BE003EB20
:1051C8008502825CDE00B24014440133032BF6DD15
:1051D80041F825400135022D02DC00231C46F5E785
:1051E80070BC704770B5044600211A48FFF794FE5A
:1051F800194D012221462846FBF72CFB06460021C3
:105208001648FFF789FE012221462846FBF722FBB4
:1052180005466368B3420FD001224FF4005110488D
:10522800FBF769FCA368AB420DD001224FF4007173
:105238000B48FBF760FC70BD01224FF40061084881
:10524800FBF759FCEEE701224FF400410448FBF755
:1052580052FCF0E7634E0D10000400201160E58C4D
:105268000010004808B50122034B1A704FF48071F2
:105278000248FBF740FC08BDA801002000100048C8
:1052880008B50122034B1A704FF480510248FBF70E
:1052980032FC08BDA80100200010004808B5012212
:1052A8004FF400710148FBF726FC08BD00100048C8
:1052B80008B501224FF480710148FBF71CFC08BDBA
:1052C8000010004808B501224FF480510148FBF74F
:1052D80012FC08BD0010004808B5FCF785F9042841
:1052E80005D001224FF400710148FBF704FC08BD0A
:1052F8000010004808B501224FF480710348FBF7FD
:10530800FAFB034B01225A6008BD00BF0010004899
:10531800A801002008B501224FF480510348FBF78B
:10532800EAFB034B01225A6008BD00BF0010004889
:10533800A8010020014B02225A607047A8010020F2
:10534800012800D07047024B01229A60FAE700BF9B
:10535800A801002008B501224FF400710148FBF7AD
:10536800CAFB08BD0010004800B59FB00021169187
:1053780017911A910F9110911191129113913C224A
:10538800684600F067FD032314934FF480331593A8
:10539800012218921022199202221B921C934FF498
:1053A80080131D9314A8FDF711FAE8B90F230F9382
:1053B80002231093002311934FF4806212921393E7
:1053C80001210FA8FDF746FD88B90C4B0093002377
:1053D800039308934FF480030E936846FDF73CFE51
:1053E80040B91FB05DF804FBFFF7B4FFDEE7FFF735
:1053F800B1FFEAE7FFF7AEFFF3E700BF42000200A4
:1054080070B50446042926D8DFE801F003263C3F9E
:1054180042004FF4165000F04BFA304D2946204612
:10542800FFF7B6FE0C2229462D48FEF7FEFB50B1C9
:10543800FFF790FF07E04FF480712A48FBF760FB05
:105448006420FAF705FF284B1B78DBB2012BF2D159
:10545800254B00221A7070BDFFF726FE1F4D294606
:105468002046FFF795FE0C2229462048FBF766FCEC
:1054780028B91E48FCF7B5F82028FAD1EBE7FFF762
:1054880069FFF6E7FFF7D8FCE5E700F069FAE2E71D
:10549800174D00236B6000F0DBF8104E31462046B4
:1054A800FFF776FE01224FF480711248FBF723FBC9
:1054B8000C2231462846FEF773F860B90A4B5B6840
:1054C800002BFBD00022084B5A604FF4807109482A
:1054D800FBF711FBBFE7FFF73DFFEFE77C04002078
:1054E800EC04002000100048A8010020240400203B
:1054F80088040020000C004810B50446042928D868
:10550800DFE801F003284C4F52004FF4165000F02A
:10551800CFF90C2239493A48FEF7ADFB50B1FFF7F5
:1055280019FF07E04FF480513648FBF7E9FA642089
:10553800FAF78EFE344B1B78DBB2012BF2D1324BDB
:1055480000221A7021462D48FFF736FE2046FFF745
:1055580049FE10BDFFF7A8FD01224FF480512948EC
:10556800FBF7C9FA0C2225492848FBF719FC90B922
:105578002648FCF736F82028FAD100224FF480514B
:105588002048FBF7B8FA21461C48FFF715FE2046CD
:10559800FFF728FEDDE7FFF7DDFEE9E7FFF74CFC44
:1055A800D7E700F0DDF9D4E7194B00225A6000F084
:1055B8004FF804E04FF480511248FBF7A1FA4FF47A
:1055C80000711448FBF790FA0028F3D00C220B491D
:1055D8000F48FEF7B5F870B90B4B5B68002BFBD092
:1055E800094B00225A6021460448FFF7E5FD204692
:1055F800FFF7F8FDADE7FFF7ADFEEDE7700400201B
:10560800EC04002000100048A80100202404002019
:1056180088040020000C004808B5FAF7F5FDFFF7EC
:10562800A3FEFFF7A9FC04210848FFF765FFFFF771
:1056380029FD064C04212046FFF7E2FEFFF722FD74
:1056480004212046FFF758FFF1E700BF18010020AA
:1056580008B50F480F4B0360002383604FF4E062E6
:10566800C260036143614FF4007282613822C261F3
:105678000362436283620722C262036308234363AF
:10568800FDF730FF00B908BDFFF764FEFBE700BF78
:10569800880400200038004070B588B000230393C8
:1056A80004930593069307930268224B9A4201D00C
:1056B80008B070BD03F5EC33DA6942F48042DA6170
:1056C800DA6902F480420092009A5A6942F4800230
:1056D8005A615A6902F480020192019A5A6942F4A5
:1056E80080225A615B6903F480230293029B4FF482
:1056F8000073039302240494032606960525079550
:1057080003A90D48FBF726F94FF44043039304948B
:10571800002405940696079503A90848FBF71AF98B
:10572800224621462420FAF799FF2420FAF7CAFFD7
:10573800BEE700BF003800400014004800040048DD
:1057480000B583B00E4B9A6942F001029A619A69DA
:1057580002F001020092009ADA6942F08052DA619E
:10576800DB6903F080530193019B00221146052059
:10577800FAF774FF0520FAF7A5FF03B05DF804FBFC
:10578800001002407047FEE7FEE7FEE7FEE77047BD
:105798007047704708B5FAF749FD08BD704708B566
:1057A8000120FBF7B1F908BD08B50248FAF717FE62
:1057B80008BD00BFD803002008B50248FAF70FFE5D
:1057C80008BD00BFD803002008B50248FAF707FE55
:1057D80008BD00BFD803002008B50248FAF7FFFD4E
:1057E80008BD00BFD803002008B50248FBF70AFB34
:1057F80008BD00BF2404002008B50248FBF7A1FE3D
:1058080008BD00BF2404002008B50248FEF772F95D
:1058180008BD00BF8804002008B50248FEF752FD05
:1058280008BD00BFEC04002008B50248FCF71EFEC6
:1058380008BD00BF500F002008B50248FCF716FE4F
:1058480008BD00BF500F00201549D1F8883043F437
:105858007003C1F88830134B1A6842F001021A60CD
:105868005868114A02405A601A6822F0847222F479
:1058780080321A601A6822F480221A605A6822F468
:10588800FE025A60DA6A22F00F02DA62186B074ADF
:1058980002401A6300229A604FF000638B607047E1
:1058A80000ED00E0001002400CC07FF8CCFC00FFC7
:1058B80008B50B4B0B4A1A60586000229A60DA60F0
:1058C8001A610C2159619A61DA611A625A621846A2
:1058D800FEF742FC00B908BDFFF73CFDFBE700BF3F
:1058E800EC0400200044004000B589B00023039375
:1058F80004930593069307930268184B9A4202D0C3
:1059080009B05DF804FB03F5E633DA6942F40032C6
:10591800DA61DA6902F400320192019A5A6942F4B2
:1059280000325A615B6903F400330293029B0C2333
:10593800039302230493032306930723079303A9DE
:105948004FF09040FBF706F8002211462620FAF7A0
:1059580085FE2620FAF7B6FED2E700BF00440040D5
:1059680008B500220F491048FEF778FE70B90F49B4
:105978000D48FEF78AFE60B90D490B48FEF740FE58
:1059880050B90948FEF788FE48B908BDFFF7E2FCA0
:10599800EDE7FFF7DFFCEFE7FFF7DCFCF1E7FFF7E8
:1059A800D9FCF2E76C0100205C050020E000002033
:1059B80028010020002070470020704710B5054CD2
:1059C80001462046FEF72BFE2046FEF72EFE00205D
:1059D80010BD00BF5C05002010B5064C002206492A
:1059E8002046FEF714FE05492046FEF718FE002063
:1059F80010BD00BF5C050020680B00208007002058
:105A080018B1022803D002207047002070470120F7
:105A18007047000010B588B00023039304930593E2
:105A28000693079302681E4B9A4201D008B010BD36
:105A38001C4C636943F400336361636903F4003306
:105A48000193019B4FF4C053039302230493032350
:105A580006930E23079303A94FF09040FAF77AFFB5
:105A6800E36943F40003E361E36903F40003029389
:105A7800029B0D4A136843F020031360002211466D
:105A88004A20FAF7EBFD4A20FAF71CFE00221146DD
:105A98004B20FAF7E3FD4B20FAF714FEC6E700BFE8
:105AA800005C0040001002400000014008B500F50D
:105AB8005D71D0F8A403FEF708FE08BD08B5C1EB78
:105AC800C10293000344D3F8DC21D0F8A403FEF705
